{
  "contractName": "Chama",
  "abi": [
    {
      "constant": true,
      "inputs": [],
      "name": "membersToApproveCount",
      "outputs": [
        {
          "name": "",
          "type": "uint256"
        }
      ],
      "payable": false,
      "stateMutability": "view",
      "type": "function"
    },
    {
      "constant": true,
      "inputs": [],
      "name": "membersCount",
      "outputs": [
        {
          "name": "",
          "type": "uint256"
        }
      ],
      "payable": false,
      "stateMutability": "view",
      "type": "function"
    },
    {
      "constant": true,
      "inputs": [],
      "name": "chamaManager3",
      "outputs": [
        {
          "name": "",
          "type": "address"
        }
      ],
      "payable": false,
      "stateMutability": "view",
      "type": "function"
    },
    {
      "constant": true,
      "inputs": [
        {
          "name": "",
          "type": "uint256"
        }
      ],
      "name": "membersToChama",
      "outputs": [
        {
          "name": "",
          "type": "address"
        }
      ],
      "payable": false,
      "stateMutability": "view",
      "type": "function"
    },
    {
      "constant": true,
      "inputs": [],
      "name": "requestCount",
      "outputs": [
        {
          "name": "",
          "type": "uint256"
        }
      ],
      "payable": false,
      "stateMutability": "view",
      "type": "function"
    },
    {
      "constant": true,
      "inputs": [
        {
          "name": "",
          "type": "uint256"
        }
      ],
      "name": "approversToChama3",
      "outputs": [
        {
          "name": "",
          "type": "address"
        }
      ],
      "payable": false,
      "stateMutability": "view",
      "type": "function"
    },
    {
      "constant": true,
      "inputs": [
        {
          "name": "",
          "type": "uint256"
        }
      ],
      "name": "members",
      "outputs": [
        {
          "name": "memberID",
          "type": "uint256"
        },
        {
          "name": "member",
          "type": "address"
        },
        {
          "name": "chamaID",
          "type": "uint256"
        },
        {
          "name": "registrationDate",
          "type": "uint256"
        },
        {
          "name": "isActive",
          "type": "bool"
        },
        {
          "name": "hasLoaned",
          "type": "bool"
        },
        {
          "name": "hasEmergency",
          "type": "bool"
        },
        {
          "name": "hasPaid",
          "type": "bool"
        }
      ],
      "payable": false,
      "stateMutability": "view",
      "type": "function"
    },
    {
      "constant": true,
      "inputs": [],
      "name": "chamaManager2",
      "outputs": [
        {
          "name": "",
          "type": "address"
        }
      ],
      "payable": false,
      "stateMutability": "view",
      "type": "function"
    },
    {
      "constant": true,
      "inputs": [
        {
          "name": "",
          "type": "uint256"
        }
      ],
      "name": "requests",
      "outputs": [
        {
          "name": "requestID",
          "type": "uint256"
        },
        {
          "name": "description",
          "type": "string"
        },
        {
          "name": "amount",
          "type": "uint256"
        },
        {
          "name": "recipient",
          "type": "address"
        },
        {
          "name": "chamaID",
          "type": "uint256"
        },
        {
          "name": "memberNo",
          "type": "uint256"
        },
        {
          "name": "complete",
          "type": "bool"
        },
        {
          "name": "approvalCount",
          "type": "uint256"
        }
      ],
      "payable": false,
      "stateMutability": "view",
      "type": "function"
    },
    {
      "constant": true,
      "inputs": [],
      "name": "approversCount",
      "outputs": [
        {
          "name": "",
          "type": "uint256"
        }
      ],
      "payable": false,
      "stateMutability": "view",
      "type": "function"
    },
    {
      "constant": true,
      "inputs": [
        {
          "name": "",
          "type": "uint256"
        }
      ],
      "name": "approversToChama2",
      "outputs": [
        {
          "name": "",
          "type": "address"
        }
      ],
      "payable": false,
      "stateMutability": "view",
      "type": "function"
    },
    {
      "constant": true,
      "inputs": [],
      "name": "chamaManager4",
      "outputs": [
        {
          "name": "",
          "type": "address"
        }
      ],
      "payable": false,
      "stateMutability": "view",
      "type": "function"
    },
    {
      "constant": true,
      "inputs": [
        {
          "name": "",
          "type": "uint256"
        }
      ],
      "name": "approversToChama4",
      "outputs": [
        {
          "name": "",
          "type": "address"
        }
      ],
      "payable": false,
      "stateMutability": "view",
      "type": "function"
    },
    {
      "constant": true,
      "inputs": [],
      "name": "memberFundCount",
      "outputs": [
        {
          "name": "",
          "type": "uint256"
        }
      ],
      "payable": false,
      "stateMutability": "view",
      "type": "function"
    },
    {
      "constant": true,
      "inputs": [],
      "name": "loanRequestCount",
      "outputs": [
        {
          "name": "",
          "type": "uint256"
        }
      ],
      "payable": false,
      "stateMutability": "view",
      "type": "function"
    },
    {
      "constant": true,
      "inputs": [],
      "name": "chamaCount",
      "outputs": [
        {
          "name": "",
          "type": "uint256"
        }
      ],
      "payable": false,
      "stateMutability": "view",
      "type": "function"
    },
    {
      "constant": true,
      "inputs": [],
      "name": "chamaManager1",
      "outputs": [
        {
          "name": "",
          "type": "address"
        }
      ],
      "payable": false,
      "stateMutability": "view",
      "type": "function"
    },
    {
      "constant": true,
      "inputs": [
        {
          "name": "",
          "type": "uint256"
        }
      ],
      "name": "approversToChama1",
      "outputs": [
        {
          "name": "",
          "type": "address"
        }
      ],
      "payable": false,
      "stateMutability": "view",
      "type": "function"
    },
    {
      "inputs": [
        {
          "name": "_nam",
          "type": "string"
        },
        {
          "name": "_registrationFee",
          "type": "uint256"
        },
        {
          "name": "_premium",
          "type": "uint256"
        },
        {
          "name": "_target",
          "type": "uint256"
        },
        {
          "name": "_reemittancePeriod",
          "type": "uint256"
        }
      ],
      "payable": false,
      "stateMutability": "nonpayable",
      "type": "constructor"
    },
    {
      "anonymous": false,
      "inputs": [
        {
          "indexed": false,
          "name": "approvCount",
          "type": "uint256"
        },
        {
          "indexed": false,
          "name": "descr",
          "type": "string"
        },
        {
          "indexed": false,
          "name": "amt",
          "type": "uint256"
        },
        {
          "indexed": false,
          "name": "loanee",
          "type": "address"
        },
        {
          "indexed": false,
          "name": "membID",
          "type": "uint256"
        },
        {
          "indexed": false,
          "name": "status",
          "type": "bool"
        }
      ],
      "name": "NewLoanRequest",
      "type": "event"
    },
    {
      "anonymous": false,
      "inputs": [
        {
          "indexed": false,
          "name": "chamaCount",
          "type": "uint256"
        },
        {
          "indexed": false,
          "name": "name",
          "type": "string"
        },
        {
          "indexed": false,
          "name": "chamAddress",
          "type": "address"
        },
        {
          "indexed": false,
          "name": "regFee",
          "type": "uint256"
        },
        {
          "indexed": false,
          "name": "premium",
          "type": "uint256"
        },
        {
          "indexed": false,
          "name": "target",
          "type": "uint256"
        },
        {
          "indexed": false,
          "name": "date",
          "type": "uint256"
        },
        {
          "indexed": false,
          "name": "_reemittancePeriod",
          "type": "uint256"
        },
        {
          "indexed": false,
          "name": "chamMembers",
          "type": "address[]"
        }
      ],
      "name": "NewChama",
      "type": "event"
    },
    {
      "constant": false,
      "inputs": [
        {
          "name": "_name",
          "type": "string"
        },
        {
          "name": "registrationFee",
          "type": "uint256"
        },
        {
          "name": "premium",
          "type": "uint256"
        },
        {
          "name": "target",
          "type": "uint256"
        },
        {
          "name": "_reemittancePeriod",
          "type": "uint256"
        }
      ],
      "name": "createRandomChama",
      "outputs": [
        {
          "name": "",
          "type": "uint256"
        },
        {
          "name": "",
          "type": "address"
        }
      ],
      "payable": true,
      "stateMutability": "payable",
      "type": "function"
    },
    {
      "constant": false,
      "inputs": [
        {
          "name": "chamaAddre",
          "type": "address"
        },
        {
          "name": "chamaCt",
          "type": "uint256"
        }
      ],
      "name": "joinChama",
      "outputs": [
        {
          "name": "",
          "type": "uint256"
        }
      ],
      "payable": true,
      "stateMutability": "payable",
      "type": "function"
    },
    {
      "constant": false,
      "inputs": [
        {
          "name": "_chamID",
          "type": "uint256"
        },
        {
          "name": "_membReceiving",
          "type": "address"
        }
      ],
      "name": "disburseDividends",
      "outputs": [],
      "payable": false,
      "stateMutability": "nonpayable",
      "type": "function"
    },
    {
      "constant": true,
      "inputs": [
        {
          "name": "_membersCount",
          "type": "uint256"
        }
      ],
      "name": "checkSubscriptionStatus",
      "outputs": [
        {
          "name": "",
          "type": "bool"
        }
      ],
      "payable": false,
      "stateMutability": "view",
      "type": "function"
    },
    {
      "constant": false,
      "inputs": [
        {
          "name": "_membersCount",
          "type": "uint256"
        }
      ],
      "name": "renewSubscription",
      "outputs": [],
      "payable": true,
      "stateMutability": "payable",
      "type": "function"
    },
    {
      "constant": false,
      "inputs": [
        {
          "name": "_description",
          "type": "string"
        },
        {
          "name": "_amount",
          "type": "uint256"
        },
        {
          "name": "_memberNo",
          "type": "uint256"
        },
        {
          "name": "_chmID",
          "type": "uint256"
        }
      ],
      "name": "createLoanRequest",
      "outputs": [],
      "payable": false,
      "stateMutability": "nonpayable",
      "type": "function"
    },
    {
      "constant": false,
      "inputs": [
        {
          "name": "_requestID",
          "type": "uint256"
        },
        {
          "name": "_approverID",
          "type": "uint256"
        },
        {
          "name": "_chamsId",
          "type": "uint256"
        }
      ],
      "name": "approveLoanRequest",
      "outputs": [],
      "payable": false,
      "stateMutability": "nonpayable",
      "type": "function"
    },
    {
      "constant": false,
      "inputs": [
        {
          "name": "_requestID",
          "type": "uint256"
        }
      ],
      "name": "awardLoanRequest",
      "outputs": [],
      "payable": false,
      "stateMutability": "nonpayable",
      "type": "function"
    }
  ],
  "bytecode": "0x60806040526001600a553480156200001657600080fd5b5060405162002d2938038062002d29833981018060405281019080805182019291906020018051906020019092919080519060200190929190805190602001909291908051906020019092919050505060006060600560008154809291906001019190505550336000806101000a81548173ffffffffffffffffffffffffffffffffffffffff021916908373ffffffffffffffffffffffffffffffffffffffff1602179055504291506101206040519081016040528060055481526020018881526020016000809054906101000a900473ffffffffffffffffffffffffffffffffffffffff1673ffffffffffffffffffffffffffffffffffffffff168152602001878152602001868152602001858152602001838152602001848152602001828152506015600060055481526020019081526020016000206000820151816000015560208201518160010190805190602001906200017692919062000220565b5060408201518160020160006101000a81548173ffffffffffffffffffffffffffffffffffffffff021916908373ffffffffffffffffffffffffffffffffffffffff160217905550606082015181600301556080820151816004015560a0820151816005015560c0820151816006015560e082015181600701556101008201518160080190805190602001906200020f929190620002a7565b5090505050505050505050620003a4565b828054600181600116156101000203166002900490600052602060002090601f016020900481019282601f106200026357805160ff191683800117855562000294565b8280016001018555821562000294579182015b828111156200029357825182559160200191906001019062000276565b5b509050620002a3919062000336565b5090565b82805482825590600052602060002090810192821562000323579160200282015b82811115620003225782518260006101000a81548173ffffffffffffffffffffffffffffffffffffffff021916908373ffffffffffffffffffffffffffffffffffffffff16021790555091602001919060010190620002c8565b5b5090506200033291906200035e565b5090565b6200035b91905b80821115620003575760008160009055506001016200033d565b5090565b90565b620003a191905b808211156200039d57600081816101000a81549073ffffffffffffffffffffffffffffffffffffffff02191690555060010162000365565b5090565b90565b61297580620003b46000396000f300608060405260043610610154576000357c0100000000000000000000000000000000000000000000000000000000900463ffffffff16806307a6afb1146101595780630f6745bc146101a657806319e75ec7146101d15780631fd68fb21461029c57806325d1afae14610323578063297f9af0146103775780633b16b5d5146103a257806340e75ea0146103f957806342a3844a1461043e5780635badbe4c146104ab5780635c1d9039146104d65780635daf08ca1461054357806376a4598c146105f157806381d12c581461064857806382fde0931461074f5780638eba86891461077a5780638fe43307146107e757806394b225161461083e578063a4357ba61461087f578063aa2630c9146108ec578063afcefe9714610919578063b786f97814610944578063c087e28b1461096f578063d71bb37b1461099a578063ee69f407146109ba578063f8c6ee1914610a11575b600080fd5b34801561016557600080fd5b506101a460048036038101908080359060200190929190803573ffffffffffffffffffffffffffffffffffffffff169060200190929190505050610a7e565b005b3480156101b257600080fd5b506101bb610c88565b6040518082815260200191505060405180910390f35b610253600480360381019080803590602001908201803590602001908080601f016020809104026020016040519081016040528093929190818152602001838380828437820191505050505050919291929080359060200190929190803590602001909291908035906020019092919080359060200190929190505050610c8e565b604051808381526020018273ffffffffffffffffffffffffffffffffffffffff1673ffffffffffffffffffffffffffffffffffffffff1681526020019250505060405180910390f35b3480156102a857600080fd5b50610321600480360381019080803590602001908201803590602001908080601f0160208091040260200160405190810160405280939291908181526020018383808284378201915050505050509192919290803590602001909291908035906020019092919080359060200190929190505050611421565b005b610361600480360381019080803573ffffffffffffffffffffffffffffffffffffffff16906020019092919080359060200190929190505050611a47565b6040518082815260200191505060405180910390f35b34801561038357600080fd5b5061038c611ecc565b6040518082815260200191505060405180910390f35b3480156103ae57600080fd5b506103b7611ed2565b604051808273ffffffffffffffffffffffffffffffffffffffff1673ffffffffffffffffffffffffffffffffffffffff16815260200191505060405180910390f35b34801561040557600080fd5b5061042460048036038101908080359060200190929190505050611ef8565b604051808215151515815260200191505060405180910390f35b34801561044a57600080fd5b5061046960048036038101908080359060200190929190505050611f42565b604051808273ffffffffffffffffffffffffffffffffffffffff1673ffffffffffffffffffffffffffffffffffffffff16815260200191505060405180910390f35b3480156104b757600080fd5b506104c0611f75565b6040518082815260200191505060405180910390f35b3480156104e257600080fd5b5061050160048036038101908080359060200190929190505050611f7b565b604051808273ffffffffffffffffffffffffffffffffffffffff1673ffffffffffffffffffffffffffffffffffffffff16815260200191505060405180910390f35b34801561054f57600080fd5b5061056e60048036038101908080359060200190929190505050611fae565b604051808981526020018873ffffffffffffffffffffffffffffffffffffffff1673ffffffffffffffffffffffffffffffffffffffff168152602001878152602001868152602001851515151581526020018415151515815260200183151515158152602001821515151581526020019850505050505050505060405180910390f35b3480156105fd57600080fd5b50610606612059565b604051808273ffffffffffffffffffffffffffffffffffffffff1673ffffffffffffffffffffffffffffffffffffffff16815260200191505060405180910390f35b34801561065457600080fd5b506106736004803603810190808035906020019092919050505061207f565b60405180898152602001806020018881526020018773ffffffffffffffffffffffffffffffffffffffff1673ffffffffffffffffffffffffffffffffffffffff16815260200186815260200185815260200184151515158152602001838152602001828103825289818151815260200191508051906020019080838360005b8381101561070d5780820151818401526020810190506106f2565b50505050905090810190601f16801561073a5780820380516001836020036101000a031916815260200191505b50995050505050505050505060405180910390f35b34801561075b57600080fd5b5061076461219b565b6040518082815260200191505060405180910390f35b34801561078657600080fd5b506107a5600480360381019080803590602001909291905050506121a1565b604051808273ffffffffffffffffffffffffffffffffffffffff1673ffffffffffffffffffffffffffffffffffffffff16815260200191505060405180910390f35b3480156107f357600080fd5b506107fc6121d4565b604051808273ffffffffffffffffffffffffffffffffffffffff1673ffffffffffffffffffffffffffffffffffffffff16815260200191505060405180910390f35b34801561084a57600080fd5b5061087d6004803603810190808035906020019092919080359060200190929190803590602001909291905050506121fa565b005b34801561088b57600080fd5b506108aa600480360381019080803590602001909291905050506124cb565b604051808273ffffffffffffffffffffffffffffffffffffffff1673ffffffffffffffffffffffffffffffffffffffff16815260200191505060405180910390f35b3480156108f857600080fd5b50610917600480360381019080803590602001909291905050506124fe565b005b34801561092557600080fd5b5061092e6126a7565b6040518082815260200191505060405180910390f35b34801561095057600080fd5b506109596126ad565b6040518082815260200191505060405180910390f35b34801561097b57600080fd5b506109846126b3565b6040518082815260200191505060405180910390f35b6109b8600480360381019080803590602001909291905050506126b9565b005b3480156109c657600080fd5b506109cf61277f565b604051808273ffffffffffffffffffffffffffffffffffffffff1673ffffffffffffffffffffffffffffffffffffffff16815260200191505060405180910390f35b348015610a1d57600080fd5b50610a3c600480360381019080803590602001909291905050506127a4565b604051808273ffffffffffffffffffffffffffffffffffffffff1673ffffffffffffffffffffffffffffffffffffffff16815260200191505060405180910390f35b620639c060156000848152602001908152602001600020600601540142141515610aa757600080fd5b60001515600e60008373ffffffffffffffffffffffffffffffffffffffff1673ffffffffffffffffffffffffffffffffffffffff16815260200190815260200160002060009054906101000a900460ff161515141515610b0657600080fd5b600860008154809291906001019190505550600f600854815481101515610b2957fe5b906000526020600020906005020160010160009054906101000a900473ffffffffffffffffffffffffffffffffffffffff1673ffffffffffffffffffffffffffffffffffffffff166108fc606460326015600087815260200190815260200160002060020160009054906101000a900473ffffffffffffffffffffffffffffffffffffffff1673ffffffffffffffffffffffffffffffffffffffff163102811515610bd057fe5b049081150290604051600060405180830381858888f19350505050158015610bfc573d6000803e3d6000fd5b504260156000848152602001908152602001600020600601819055506001600e60008373ffffffffffffffffffffffffffffffffffffffff1673ffffffffffffffffffffffffffffffffffffffff16815260200190815260200160002060006101000a81548160ff021916908315150217905550600c6008541115610c845760006008819055505b5050565b600a5481565b60008060008060606729a2241af62c00003410151515610cad57600080fd5b600073ffffffffffffffffffffffffffffffffffffffff16600160009054906101000a900473ffffffffffffffffffffffffffffffffffffffff1673ffffffffffffffffffffffffffffffffffffffff161480610d585750600073ffffffffffffffffffffffffffffffffffffffff16600260009054906101000a900473ffffffffffffffffffffffffffffffffffffffff1673ffffffffffffffffffffffffffffffffffffffff16145b80610db15750600073ffffffffffffffffffffffffffffffffffffffff16600360009054906101000a900473ffffffffffffffffffffffffffffffffffffffff1673ffffffffffffffffffffffffffffffffffffffff16145b1515610dbc57600080fd5b600073ffffffffffffffffffffffffffffffffffffffff16600160009054906101000a900473ffffffffffffffffffffffffffffffffffffffff1673ffffffffffffffffffffffffffffffffffffffff161480610e675750600073ffffffffffffffffffffffffffffffffffffffff16600260009054906101000a900473ffffffffffffffffffffffffffffffffffffffff1673ffffffffffffffffffffffffffffffffffffffff16145b80610ec05750600073ffffffffffffffffffffffffffffffffffffffff16600360009054906101000a900473ffffffffffffffffffffffffffffffffffffffff1673ffffffffffffffffffffffffffffffffffffffff16145b15610f305733600160006101000a81548173ffffffffffffffffffffffffffffffffffffffff021916908373ffffffffffffffffffffffffffffffffffffffff160217905550600160009054906101000a900473ffffffffffffffffffffffffffffffffffffffff16925061117d565b600073ffffffffffffffffffffffffffffffffffffffff16600260009054906101000a900473ffffffffffffffffffffffffffffffffffffffff1673ffffffffffffffffffffffffffffffffffffffff161480610fdb5750600073ffffffffffffffffffffffffffffffffffffffff16600360009054906101000a900473ffffffffffffffffffffffffffffffffffffffff1673ffffffffffffffffffffffffffffffffffffffff16145b1561104b5733600260006101000a81548173ffffffffffffffffffffffffffffffffffffffff021916908373ffffffffffffffffffffffffffffffffffffffff160217905550600260009054906101000a900473ffffffffffffffffffffffffffffffffffffffff16925061117c565b600073ffffffffffffffffffffffffffffffffffffffff16600360009054906101000a900473ffffffffffffffffffffffffffffffffffffffff1673ffffffffffffffffffffffffffffffffffffffff16141561110d5733600360006101000a81548173ffffffffffffffffffffffffffffffffffffffff021916908373ffffffffffffffffffffffffffffffffffffffff160217905550600360009054906101000a900473ffffffffffffffffffffffffffffffffffffffff16925061117b565b6040517f08c379a00000000000000000000000000000000000000000000000000000000081526004018080602001828103825260188152602001807f53746f70206372656174696e6720746865206368616d6121000000000000000081525060200191505060405180910390fd5b5b5b6005600081548092919060010191905055504291506101206040519081016040528060055481526020018b81526020018473ffffffffffffffffffffffffffffffffffffffff1681526020018a8152602001898152602001888152602001838152602001878152602001828152506015600060055481526020019081526020016000206000820151816000015560208201518160010190805190602001906112269291906127d7565b5060408201518160020160006101000a81548173ffffffffffffffffffffffffffffffffffffffff021916908373ffffffffffffffffffffffffffffffffffffffff160217905550606082015181600301556080820151816004015560a0820151816005015560c0820151816006015560e082015181600701556101008201518160080190805190602001906112bd929190612857565b509050507f9b84ca9debbf4149a51e4851c59a4baf4b58d6d2b2b8659822c33e4dee450d566005548b858c8c8c888d89604051808a8152602001806020018973ffffffffffffffffffffffffffffffffffffffff1673ffffffffffffffffffffffffffffffffffffffff1681526020018881526020018781526020018681526020018581526020018481526020018060200183810383528b818151815260200191508051906020019080838360005b8381101561138757808201518184015260208101905061136c565b50505050905090810190601f1680156113b45780820380516001836020036101000a031916815260200191505b50838103825284818151815260200191508051906020019060200280838360005b838110156113f05780820151818401526020810190506113d5565b505050509050019b50505050505050505050505060405180910390a160055483945094505050509550959350505050565b6000806000803393506000915060096000815480929190600101919050555060106101006040519081016040528060095481526020018a81526020018981526020018673ffffffffffffffffffffffffffffffffffffffff168152602001878152602001888152602001841515815260200185815250908060018154018082558091505090600182039060005260206000209060080201600090919290919091506000820151816000015560208201518160010190805190602001906114e89291906127d7565b506040820151816002015560608201518160030160006101000a81548173ffffffffffffffffffffffffffffffffffffffff021916908373ffffffffffffffffffffffffffffffffffffffff1602179055506080820151816004015560a0820151816005015560c08201518160060160006101000a81548160ff02191690831515021790555060e08201518160070155505050600090505b60156000868152602001908152602001600020600801805490508110156119495760018514156116625760156000868152602001908152602001600020600801818154811015156115cd57fe5b9060005260206000200160009054906101000a900473ffffffffffffffffffffffffffffffffffffffff1660116000600a54815260200190815260200160002060006101000a81548173ffffffffffffffffffffffffffffffffffffffff021916908373ffffffffffffffffffffffffffffffffffffffff160217905550600a6000815480929190600101919050555061193c565b600285141561172357601560008681526020019081526020016000206008018181548110151561168e57fe5b9060005260206000200160009054906101000a900473ffffffffffffffffffffffffffffffffffffffff1660126000600a54815260200190815260200160002060006101000a81548173ffffffffffffffffffffffffffffffffffffffff021916908373ffffffffffffffffffffffffffffffffffffffff160217905550600a6000815480929190600101919050555061193b565b60038514156117e457601560008681526020019081526020016000206008018181548110151561174f57fe5b9060005260206000200160009054906101000a900473ffffffffffffffffffffffffffffffffffffffff1660136000600a54815260200190815260200160002060006101000a81548173ffffffffffffffffffffffffffffffffffffffff021916908373ffffffffffffffffffffffffffffffffffffffff160217905550600a6000815480929190600101919050555061193a565b60048514156118a557601560008681526020019081526020016000206008018181548110151561181057fe5b9060005260206000200160009054906101000a900473ffffffffffffffffffffffffffffffffffffffff1660146000600a54815260200190815260200160002060006101000a81548173ffffffffffffffffffffffffffffffffffffffff021916908373ffffffffffffffffffffffffffffffffffffffff160217905550600a60008154809291906001019190505550611939565b6040517f08c379a00000000000000000000000000000000000000000000000000000000081526004018080602001828103825260228152602001807f4368616d612077697468207468617420494420646f6573206e6f74206578697381526020017f742100000000000000000000000000000000000000000000000000000000000081525060400191505060405180910390fd5b5b5b5b8080600101915050611580565b7f4914c87a5b1143f407f6924cc93cfc92abac683355da6918a3a92d5cc97317b2838989878a8760405180878152602001806020018681526020018573ffffffffffffffffffffffffffffffffffffffff1673ffffffffffffffffffffffffffffffffffffffff16815260200184815260200183151515158152602001828103825287818151815260200191508051906020019080838360005b838110156119fe5780820151818401526020810190506119e3565b50505050905090810190601f168015611a2b5780820380516001836020036101000a031916815260200191505b5097505050505050505060405180910390a15050505050505050565b60008060008060009054906101000a900473ffffffffffffffffffffffffffffffffffffffff1673ffffffffffffffffffffffffffffffffffffffff168573ffffffffffffffffffffffffffffffffffffffff161480611af45750600160009054906101000a900473ffffffffffffffffffffffffffffffffffffffff1673ffffffffffffffffffffffffffffffffffffffff168573ffffffffffffffffffffffffffffffffffffffff16145b80611b4c5750600260009054906101000a900473ffffffffffffffffffffffffffffffffffffffff1673ffffffffffffffffffffffffffffffffffffffff168573ffffffffffffffffffffffffffffffffffffffff16145b80611ba45750600360009054906101000a900473ffffffffffffffffffffffffffffffffffffffff1673ffffffffffffffffffffffffffffffffffffffff168573ffffffffffffffffffffffffffffffffffffffff16145b1515611baf57600080fd5b600c8060008773ffffffffffffffffffffffffffffffffffffffff1673ffffffffffffffffffffffffffffffffffffffff1681526020019081526020016000205411151515611bfd57600080fd5b60156000858152602001908152602001600020600301543410151515611c2257600080fd5b4291506004600081548092919060010191905055506001600f6101006040519081016040528060045481526020013373ffffffffffffffffffffffffffffffffffffffff16815260200187815260200185815260200160011515815260200160001515815260200160001515815260200160011515815250908060018154018082558091505090600182039060005260206000209060050201600090919290919091506000820151816000015560208201518160010160006101000a81548173ffffffffffffffffffffffffffffffffffffffff021916908373ffffffffffffffffffffffffffffffffffffffff160217905550604082015181600201556060820151816003015560808201518160040160006101000a81548160ff02191690831515021790555060a08201518160040160016101000a81548160ff02191690831515021790555060c08201518160040160026101000a81548160ff02191690831515021790555060e08201518160040160036101000a81548160ff021916908315150217905550505003905084600b600083815260200190815260200160002060006101000a81548173ffffffffffffffffffffffffffffffffffffffff021916908373ffffffffffffffffffffffffffffffffffffffff160217905550600454600c60008773ffffffffffffffffffffffffffffffffffffffff1673ffffffffffffffffffffffffffffffffffffffff16815260200190815260200160002081905550601560008581526020019081526020016000206008013390806001815401808255809150509060018203906000526020600020016000909192909190916101000a81548173ffffffffffffffffffffffffffffffffffffffff021916908373ffffffffffffffffffffffffffffffffffffffff16021790555050809250505092915050565b60045481565b600260009054906101000a900473ffffffffffffffffffffffffffffffffffffffff1681565b600080620639c0600f84815481101515611f0e57fe5b90600052602060002090600502016003015401421415611f345760019050809150611f3c565b600090508091505b50919050565b600b6020528060005260406000206000915054906101000a900473ffffffffffffffffffffffffffffffffffffffff1681565b60065481565b60136020528060005260406000206000915054906101000a900473ffffffffffffffffffffffffffffffffffffffff1681565b600f81815481101515611fbd57fe5b90600052602060002090600502016000915090508060000154908060010160009054906101000a900473ffffffffffffffffffffffffffffffffffffffff16908060020154908060030154908060040160009054906101000a900460ff16908060040160019054906101000a900460ff16908060040160029054906101000a900460ff16908060040160039054906101000a900460ff16905088565b600160009054906101000a900473ffffffffffffffffffffffffffffffffffffffff1681565b60108181548110151561208e57fe5b9060005260206000209060080201600091509050806000015490806001018054600181600116156101000203166002900480601f0160208091040260200160405190810160405280929190818152602001828054600181600116156101000203166002900480156121405780601f1061211557610100808354040283529160200191612140565b820191906000526020600020905b81548152906001019060200180831161212357829003601f168201915b5050505050908060020154908060030160009054906101000a900473ffffffffffffffffffffffffffffffffffffffff16908060040154908060050154908060060160009054906101000a900460ff16908060070154905088565b60075481565b60126020528060005260406000206000915054906101000a900473ffffffffffffffffffffffffffffffffffffffff1681565b600360009054906101000a900473ffffffffffffffffffffffffffffffffffffffff1681565b6001811415612275573373ffffffffffffffffffffffffffffffffffffffff166011600084815260200190815260200160002060009054906101000a900473ffffffffffffffffffffffffffffffffffffffff1673ffffffffffffffffffffffffffffffffffffffff1614151561227057600080fd5b6123e5565b60028114156122f0573373ffffffffffffffffffffffffffffffffffffffff166012600084815260200190815260200160002060009054906101000a900473ffffffffffffffffffffffffffffffffffffffff1673ffffffffffffffffffffffffffffffffffffffff161415156122eb57600080fd5b6123e4565b600381141561236b573373ffffffffffffffffffffffffffffffffffffffff166013600084815260200190815260200160002060009054906101000a900473ffffffffffffffffffffffffffffffffffffffff1673ffffffffffffffffffffffffffffffffffffffff1614151561236657600080fd5b6123e3565b60048114156123e2573373ffffffffffffffffffffffffffffffffffffffff166014600084815260200190815260200160002060009054906101000a900473ffffffffffffffffffffffffffffffffffffffff1673ffffffffffffffffffffffffffffffffffffffff161415156123e157600080fd5b5b5b5b5b600d60003373ffffffffffffffffffffffffffffffffffffffff1673ffffffffffffffffffffffffffffffffffffffff16815260200190815260200160002060009054906101000a900460ff1615151561243e57600080fd5b60108381548110151561244d57fe5b9060005260206000209060080201600701600081548092919060010191905055506001600d60003373ffffffffffffffffffffffffffffffffffffffff1673ffffffffffffffffffffffffffffffffffffffff16815260200190815260200160002060006101000a81548160ff021916908315150217905550505050565b60146020528060005260406000206000915054906101000a900473ffffffffffffffffffffffffffffffffffffffff1681565b600660108281548110151561250f57fe5b9060005260206000209060080201600701541015151561252e57600080fd5b60108181548110151561253d57fe5b906000526020600020906008020160060160009054906101000a900460ff1615151561256857600080fd5b60108181548110151561257757fe5b906000526020600020906008020160030160009054906101000a900473ffffffffffffffffffffffffffffffffffffffff1673ffffffffffffffffffffffffffffffffffffffff166108fc60646005601560006010878154811015156125d957fe5b906000526020600020906008020160040154815260200190815260200160002060020160009054906101000a900473ffffffffffffffffffffffffffffffffffffffff1673ffffffffffffffffffffffffffffffffffffffff16310281151561263e57fe5b049081150290604051600060405180830381858888f1935050505015801561266a573d6000803e3d6000fd5b50600160108281548110151561267c57fe5b906000526020600020906008020160060160006101000a81548160ff02191690831515021790555050565b60085481565b60095481565b60055481565b60008015156126c783611ef8565b15151415156126d557600080fd5b600f828154811015156126e457fe5b90600052602060002090600502016002015490506015600082815260200190815260200160002060040154341015151561271d57600080fd5b42600f8381548110151561272d57fe5b9060005260206000209060050201600301819055506001600f8381548110151561275357fe5b906000526020600020906005020160040160006101000a81548160ff0219169083151502179055505050565b6000809054906101000a900473ffffffffffffffffffffffffffffffffffffffff1681565b60116020528060005260406000206000915054906101000a900473ffffffffffffffffffffffffffffffffffffffff1681565b828054600181600116156101000203166002900490600052602060002090601f016020900481019282601f1061281857805160ff1916838001178555612846565b82800160010185558215612846579182015b8281111561284557825182559160200191906001019061282a565b5b50905061285391906128e1565b5090565b8280548282559060005260206000209081019282156128d0579160200282015b828111156128cf5782518260006101000a81548173ffffffffffffffffffffffffffffffffffffffff021916908373ffffffffffffffffffffffffffffffffffffffff16021790555091602001919060010190612877565b5b5090506128dd9190612906565b5090565b61290391905b808211156128ff5760008160009055506001016128e7565b5090565b90565b61294691905b8082111561294257600081816101000a81549073ffffffffffffffffffffffffffffffffffffffff02191690555060010161290c565b5090565b905600a165627a7a72305820c712c0eae73cb40449d789f95ab955783b89f8fb2dcaf8f8307e5f3f20ba4d520029",
  "source": "// SPDX-License-Identifier: MIT\r\npragma solidity ^0.4.25;\r\n\r\n/**\r\n* @title Chama\r\n* @dev Blockchain Chama System\r\n* This simplifies the implementation of \"Women Chamas \".\r\n*/\r\n\r\ncontract Chama {\r\n    // Chama Managers will be required to create chamas and will be responsible for disbursing dividends for emergency and loans\r\n    // To be a chama Manager you'll have to a minimum of 3eth\r\n    address public chamaManager1;\r\n    address public chamaManager2;\r\n    address public chamaManager3;\r\n    address public chamaManager4;\r\n    // Since I'm storing members in a mapping I need membersCount to keep track of the number of members\r\n    uint256 public membersCount;\r\n    uint256 public chamaCount;\r\n    uint256 public requestCount;\r\n    uint256 public approversCount;\r\n    uint256 public memberFundCount;\r\n    uint256 public loanRequestCount;\r\n    uint256 public membersToApproveCount = 1;\r\n\r\n    struct Member {\r\n        uint256 memberID;\r\n        address member;\r\n        uint256 chamaID;\r\n        uint256 registrationDate;\r\n        bool isActive;\r\n        bool hasLoaned;\r\n        bool hasEmergency;\r\n        bool hasPaid;\r\n    }\r\n\r\n    // keeps track of the members of a specific chama\r\n    mapping(uint256 => address) public membersToChama;\r\n    // keeps track of the numbers of members of a specific chama\r\n    mapping(address => uint256) chamaMembersCount;\r\n    // membApproved is used to keep track of the members who have approved a loan request so that a member doesn't approve more than once\r\n    mapping(address => bool) membHasAlreadyApproved;\r\n    // memberPaidStatus is meant to keep track the payment status of chama members\r\n    mapping(address => bool) memberPaidStatus;\r\n\r\n    Member[] public members;\r\n\r\n    struct ChamaDetails {\r\n        uint256 chamaID;\r\n        string _name;\r\n        address chamaManager;\r\n        uint256 registrationFee;\r\n        uint256 premium;\r\n        uint256 target;\r\n        uint256 creationDate;\r\n        // disbusrement period will be the amount of time it take before funds are disbursed i.e 1 month or a week\r\n        uint256 disbursementPeriod;\r\n        address[] chamaMembers;\r\n    }\r\n\r\n    // store details about request for loan or emergencyLoan\r\n    struct Request {\r\n        uint256 requestID;\r\n        string description;\r\n        uint256 amount;\r\n        address recipient;\r\n        uint256 chamaID;\r\n        uint256 memberNo;\r\n        bool complete;\r\n        uint256 approvalCount;\r\n    }\r\n\r\n    Request[] public requests;\r\n    // mapping will include chama members who need to approve\r\n    mapping(uint256 => address) public approversToChama1;\r\n    mapping(uint256 => address) public approversToChama2;\r\n    mapping(uint256 => address) public approversToChama3;\r\n    mapping(uint256 => address) public approversToChama4;\r\n    //mapping(address => bool) public approvers;\r\n\r\n    mapping(uint256 => ChamaDetails)  chamas;\r\n\r\n    event NewLoanRequest(\r\n        uint256 approvCount,\r\n        string descr,\r\n        uint256 amt,\r\n        address loanee,\r\n        uint256 membID,\r\n        bool status\r\n    );\r\n\r\n    event NewChama(\r\n        uint256 chamaCount,\r\n        string name,\r\n        address chamAddress,\r\n        uint256 regFee,\r\n        uint256 premium,\r\n        uint256 target,\r\n        uint256 date,\r\n        uint256 _reemittancePeriod,\r\n        address[] chamMembers\r\n    );\r\n\r\n    // The address that deploys this contract will be chamaManager1\r\n    // Constructor\r\n    constructor(\r\n        string _nam,\r\n        uint256 _registrationFee,\r\n        uint256 _premium,\r\n        uint256 _target,\r\n        uint256 _reemittancePeriod\r\n    ) public {\r\n        chamaCount++;\r\n        chamaManager1 = msg.sender;\r\n        uint256 time = block.timestamp;\r\n        address[] memory membs;\r\n        chamas[chamaCount] = ChamaDetails(\r\n            chamaCount,\r\n            _nam,\r\n            chamaManager1,\r\n            _registrationFee,\r\n            _premium,\r\n            _target,\r\n            time,\r\n            _reemittancePeriod,\r\n            membs\r\n        );\r\n        //return(chamaCount);\r\n    }\r\n\r\n    // function to create a Chama\r\n    function createRandomChama(\r\n        string _name,\r\n        uint256 registrationFee,\r\n        uint256 premium,\r\n        uint256 target,\r\n        uint256 _reemittancePeriod\r\n    ) public payable returns (uint256, address) {\r\n        // For one to be a chama Manager he or she must be willing to pay 3 ether\r\n        require(msg.value >= 3 ether);\r\n        require(\r\n            chamaManager2 == address(0) ||\r\n                chamaManager3 == address(0) ||\r\n                chamaManager4 == address(0)\r\n        );\r\n        // chamaAdd will be the Chama Address which will be equal to ChamaManager's address\r\n        address chamaAdd;\r\n        uint256 date;\r\n        // chamaManager address will be the\r\n        if (\r\n            chamaManager2 == address(0) ||\r\n            chamaManager3 == address(0) ||\r\n            chamaManager4 == address(0)\r\n        ) {\r\n            // assign to chamaManager2\r\n            chamaManager2 = msg.sender;\r\n            chamaAdd = chamaManager2;\r\n        } else if (chamaManager3 == address(0) || chamaManager4 == address(0)) {\r\n            // assign to chamaManager3\r\n            chamaManager3 = msg.sender;\r\n            chamaAdd = chamaManager3;\r\n        } else if (chamaManager4 == address(0)) {\r\n            // assign to chamaManager4\r\n            chamaManager4 = msg.sender;\r\n            chamaAdd = chamaManager4;\r\n        } else {\r\n            // stop creating a random chama\r\n            revert(\"Stop creating the chama!\");\r\n        }\r\n        chamaCount++;\r\n        date = block.timestamp;\r\n        address[] memory mbrs;\r\n        chamas[chamaCount] = ChamaDetails(\r\n            chamaCount,\r\n            _name,\r\n            chamaAdd,\r\n            registrationFee,\r\n            premium,\r\n            target,\r\n            date,\r\n            _reemittancePeriod,\r\n            mbrs\r\n        );\r\n        emit NewChama(\r\n            chamaCount,\r\n            _name,\r\n            chamaAdd,\r\n            registrationFee,\r\n            premium,\r\n            target,\r\n            date,\r\n            _reemittancePeriod,\r\n            mbrs\r\n        );\r\n\r\n        return (chamaCount, chamaAdd);\r\n    }\r\n\r\n    // chamaAddress will be the address of the chama's manager\r\n    // in the front end application we'll have a list of available chamas with the addresses of their respective managers\r\n    // function to join Chama\r\n    function joinChama(address chamaAddre, uint256 chamaCt)\r\n        public\r\n        payable\r\n        returns (uint256)\r\n    {\r\n        require(\r\n            chamaAddre == chamaManager1 ||\r\n                chamaAddre == chamaManager2 ||\r\n                chamaAddre == chamaManager3 ||\r\n                chamaAddre == chamaManager4\r\n        );\r\n        require(chamaMembersCount[chamaAddre] <= 12);\r\n        require(msg.value >= chamas[chamaCt].registrationFee);\r\n        uint256 registrationTime = block.timestamp;\r\n        membersCount++;\r\n        // membersCount will serve as memberID\r\n        uint256 id = members.push(\r\n            Member(\r\n                membersCount,\r\n                msg.sender,\r\n                chamaCt,\r\n                registrationTime,\r\n                true,\r\n                false,\r\n                false,\r\n                true\r\n            )\r\n        ) - 1;\r\n        membersToChama[id] = chamaAddre;\r\n        //chamaMembersCount[chamaAddre] = chamaMembersCount[chamaAddre].add(1);\r\n        chamaMembersCount[chamaAddre] = membersCount;\r\n        chamas[chamaCt].chamaMembers.push(msg.sender);\r\n        return (id);\r\n    }\r\n\r\n    /** function listOfChamaDetails(uint256 _chamsID) public view returns(ChamaDetails[]) {\r\n        // expect to return the members addresses made with the loan requests details\r\n        return (chamas[_chamsID]);\r\n    }  */\r\n\r\n    // function to disburse\r\n    // Using useEffect will keep on calling this function to keep track of time and make sure it\r\n    function disburseDividends(uint256 _chamID, address _membReceiving) public {\r\n        require(block.timestamp == chamas[_chamID].creationDate + 408000);\r\n        require(memberPaidStatus[_membReceiving] == false);\r\n        memberFundCount++;\r\n        members[memberFundCount].member.transfer(\r\n            (chamas[_chamID].chamaManager.balance * 50) / 100\r\n        );\r\n        chamas[_chamID].creationDate = block.timestamp;\r\n        memberPaidStatus[_membReceiving] = true;\r\n        if (memberFundCount > 12) {\r\n            memberFundCount = 0;\r\n        }\r\n    }\r\n\r\n    // function to check subscription status\r\n    function checkSubscriptionStatus(uint256 _membersCount)\r\n        public\r\n        view\r\n        returns (bool)\r\n    {\r\n        // Epoch Unix time equivalence of 30 days\r\n        // I converted 30 days to Epoch Unix time equivalence i.e 408000\r\n        //require(members[_membersCount].hasPaid == false )\r\n        //require(block.timestamp == members[_membersCount].registrationDate + 408000);\r\n        // Need to add logic to check if he or she has paid\r\n        //require(renewSubscription(_membersCount) == false);\r\n        bool expired;\r\n        if (\r\n            block.timestamp == members[_membersCount].registrationDate + 408000\r\n        ) {\r\n            expired = true;\r\n            return (expired);\r\n        } else {\r\n            expired = false;\r\n            return (expired);\r\n        }\r\n    }\r\n\r\n    // function to renew Subscription\r\n    function renewSubscription(uint256 _membersCount) public payable {\r\n        require(checkSubscriptionStatus(_membersCount) == false);\r\n        uint256 chama = members[_membersCount].chamaID;\r\n        require(msg.value >= chamas[chama].premium);\r\n        members[_membersCount].registrationDate = block.timestamp;\r\n        members[_membersCount].isActive = true;\r\n    }\r\n\r\n    // decisions as to whether to award loans to members will be based on a consensus made by every chama member\r\n    // function to create a Loan request\r\n    function createLoanRequest(\r\n        string _description,\r\n        uint256 _amount,\r\n        uint256 _memberNo,\r\n        uint256 _chmID\r\n    ) public {\r\n        address recipient = msg.sender;\r\n        uint256 approvalCount;\r\n        bool requestStatus = false;\r\n        loanRequestCount++;\r\n        requests.push(\r\n            Request(\r\n                loanRequestCount,\r\n                _description,\r\n                _amount,\r\n                recipient,\r\n                _chmID,\r\n                _memberNo,\r\n                requestStatus,\r\n                approvalCount\r\n            )\r\n        );\r\n        for(uint256 i=0; i<chamas[_chmID].chamaMembers.length; i++){\r\n            if(_chmID == 1){\r\n                approversToChama1[membersToApproveCount] = chamas[_chmID].chamaMembers[i];\r\n                membersToApproveCount++;\r\n            } else if(_chmID == 2){\r\n                approversToChama2[membersToApproveCount] = chamas[_chmID].chamaMembers[i];\r\n                membersToApproveCount++;\r\n            } else if(_chmID == 3){\r\n                approversToChama3[membersToApproveCount] = chamas[_chmID].chamaMembers[i];\r\n                membersToApproveCount++;\r\n            } else if(_chmID == 4){\r\n                approversToChama4[membersToApproveCount] = chamas[_chmID].chamaMembers[i];\r\n                membersToApproveCount++;\r\n            } else {\r\n                revert(\"Chama with that ID does not exist!\");\r\n            }\r\n           \r\n        }\r\n        emit NewLoanRequest(\r\n            approvalCount,\r\n            _description,\r\n            _amount,\r\n            recipient,\r\n            _memberNo,\r\n            requestStatus\r\n        );\r\n    }\r\n\r\n    // function returns a list of loan requests\r\n    function listOfLoanRequests() internal view returns (Request[]) {\r\n        // expect to return the several requests made with the loan requests details\r\n        return (requests);\r\n    }\r\n\r\n    // function that Chama members will call to approve loan requests\r\n    function approveLoanRequest(\r\n        uint256 _requestID,\r\n        uint256 _approverID,\r\n        uint256 _chamsId\r\n    ) public {\r\n        //uint256 loaneeNumber = requests[_requestID].memberNo;\r\n        //require(members[loaneeNumber].chamaID)\r\n        if(_chamsId == 1){\r\n            require(approversToChama1[_approverID] == msg.sender);\r\n        } else if(_chamsId == 2){\r\n            require(approversToChama2[_approverID] == msg.sender);\r\n        } else if(_chamsId == 3){\r\n            require(approversToChama3[_approverID] == msg.sender);\r\n        } else if(_chamsId == 4){\r\n            require(approversToChama4[_approverID] == msg.sender);\r\n        }\r\n        // there may be many loan requests someone may argue\r\n        // but at the moment our rule is we can only administer one loan at a time\r\n        require(!membHasAlreadyApproved[msg.sender]);\r\n        requests[_requestID].approvalCount++;\r\n        membHasAlreadyApproved[msg.sender] = true;\r\n    }\r\n\r\n    // function to award loan based on consensus arrived by every member\r\n    function awardLoanRequest(uint256 _requestID) public {\r\n        // In order to award loan, decision is influenced by chama members\r\n        require(requests[_requestID].approvalCount >= 6);\r\n        require(!requests[_requestID].complete);\r\n        //chamas[chamaID].chamaManager.transfer()\r\n        requests[_requestID].recipient.transfer(\r\n            ((chamas[requests[_requestID].chamaID].chamaManager.balance * 5) /\r\n                100)\r\n        );\r\n        requests[_requestID].complete = true;\r\n        // I want to set the membHasAlreadyApproved mapping with address as its key and value as a boolean field to the default mapping value\r\n        //for(uint256 i=0; i<)\r\n    }\r\n}\r\n",
  "sourcePath": "C:\\Users\\ronle\\OneDrive\\Desktop\\Solidity\\CryptoZombies\\cryptozombies-lesson-code\\sample-folder\\contracts\\Chama.sol",
  "compiler": {
    "name": "solc",
    "version": "0.4.25+commit.59dbf8f1.Emscripten.clang"
  },
  "schemaVersion": "3.4.6",
  "updatedAt": "2022-04-06T10:01:56.831Z",
  "devdoc": {
    "methods": {},
    "title": "Chama\r"
  },
  "userdoc": {
    "methods": {
      "disburseDividends(uint256,address)": {
        "notice": "function listOfChamaDetails(uint256 _chamsID) public view returns(ChamaDetails[]) {\r // expect to return the members addresses made with the loan requests details\r return (chamas[_chamsID]);\r }  "
      }
    }
  }
}