{
  "contractName": "Chama",
  "abi": [
    {
      "constant": true,
      "inputs": [],
      "name": "chamaManager",
      "outputs": [
        {
          "name": "",
          "type": "address"
        }
      ],
      "payable": false,
      "stateMutability": "view",
      "type": "function"
    },
    {
      "constant": true,
      "inputs": [],
      "name": "membersCount",
      "outputs": [
        {
          "name": "",
          "type": "uint256"
        }
      ],
      "payable": false,
      "stateMutability": "view",
      "type": "function"
    },
    {
      "constant": true,
      "inputs": [
        {
          "name": "",
          "type": "uint256"
        }
      ],
      "name": "members",
      "outputs": [
        {
          "name": "memberID",
          "type": "uint256"
        },
        {
          "name": "premium",
          "type": "uint256"
        },
        {
          "name": "member",
          "type": "address"
        },
        {
          "name": "registrationDate",
          "type": "uint256"
        },
        {
          "name": "isActive",
          "type": "bool"
        },
        {
          "name": "hasLoaned",
          "type": "bool"
        },
        {
          "name": "hasEmergency",
          "type": "bool"
        }
      ],
      "payable": false,
      "stateMutability": "view",
      "type": "function"
    },
    {
      "constant": true,
      "inputs": [],
      "name": "premium",
      "outputs": [
        {
          "name": "",
          "type": "uint256"
        }
      ],
      "payable": false,
      "stateMutability": "view",
      "type": "function"
    },
    {
      "inputs": [],
      "payable": false,
      "stateMutability": "nonpayable",
      "type": "constructor"
    },
    {
      "constant": false,
      "inputs": [],
      "name": "joinChama",
      "outputs": [
        {
          "name": "",
          "type": "uint256"
        }
      ],
      "payable": true,
      "stateMutability": "payable",
      "type": "function"
    },
    {
      "constant": false,
      "inputs": [
        {
          "name": "_membersCount",
          "type": "uint256"
        }
      ],
      "name": "checkSubscriptionStatus",
      "outputs": [
        {
          "name": "",
          "type": "bool"
        }
      ],
      "payable": false,
      "stateMutability": "nonpayable",
      "type": "function"
    },
    {
      "constant": false,
      "inputs": [
        {
          "name": "_membersCount",
          "type": "uint256"
        }
      ],
      "name": "renewSubscription",
      "outputs": [],
      "payable": true,
      "stateMutability": "payable",
      "type": "function"
    }
  ],
  "bytecode": "0x6060604052341561000f57600080fd5b336000806101000a81548173ffffffffffffffffffffffffffffffffffffffff021916908373ffffffffffffffffffffffffffffffffffffffff16021790555061054c8061005e6000396000f30060606040523615610081576000357c0100000000000000000000000000000000000000000000000000000000900463ffffffff16806309a3f2ac1461008657806318d340bb146100db578063297f9af0146100f957806340e75ea0146101225780635daf08ca1461015d578063d71bb37b146101f6578063e0a73a931461020e575b600080fd5b341561009157600080fd5b610099610237565b604051808273ffffffffffffffffffffffffffffffffffffffff1673ffffffffffffffffffffffffffffffffffffffff16815260200191505060405180910390f35b6100e361025c565b6040518082815260200191505060405180910390f35b341561010457600080fd5b61010c6103ce565b6040518082815260200191505060405180910390f35b341561012d57600080fd5b61014360048080359060200190919050506103d4565b604051808215151515815260200191505060405180910390f35b341561016857600080fd5b61017e6004808035906020019091905050610434565b604051808881526020018781526020018673ffffffffffffffffffffffffffffffffffffffff1673ffffffffffffffffffffffffffffffffffffffff16815260200185815260200184151515158152602001831515151581526020018215151515815260200197505050505050505060405180910390f35b61020c60048080359060200190919050506104bd565b005b341561021957600080fd5b61022161051a565b6040518082815260200191505060405180910390f35b6000809054906101000a900473ffffffffffffffffffffffffffffffffffffffff1681565b600080671bc16d674ec800003411151561027557600080fd5b3460028190555042905060016000815480929190600101919050555060e060405190810160405280600154815260200160025481526020013373ffffffffffffffffffffffffffffffffffffffff16815260200182815260200160011515815260200160001515815260200160001515815250600360006001548152602001908152602001600020600082015181600001556020820151816001015560408201518160020160006101000a81548173ffffffffffffffffffffffffffffffffffffffff021916908373ffffffffffffffffffffffffffffffffffffffff1602179055506060820151816003015560808201518160040160006101000a81548160ff02191690831515021790555060a08201518160040160016101000a81548160ff02191690831515021790555060c08201518160040160026101000a81548160ff02191690831515021790555090505060015491505090565b60015481565b6000620639c0600360008481526020019081526020016000206003015401421415156103ff57600080fd5b60006003600084815260200190815260200160002060040160006101000a81548160ff02191690831515021790559050919050565b60036020528060005260406000206000915090508060000154908060010154908060020160009054906101000a900473ffffffffffffffffffffffffffffffffffffffff16908060030154908060040160009054906101000a900460ff16908060040160019054906101000a900460ff16908060040160029054906101000a900460ff16905087565b6104c6816103d4565b1515156104d257600080fd5b671bc16d674ec80000341115156104e857600080fd5b60016003600083815260200190815260200160002060040160006101000a81548160ff02191690831515021790555050565b600254815600a165627a7a72305820821067c86a4c1eb310ad81d0d06c07e9866a298e3ab16a35a275611d7465d45f0029",
  "source": "// SPDX-License-Identifier: MIT\r\npragma solidity ^0.4.17;\r\n\r\ncontract Chama {\r\n    // Chama Manager will be responsible for calling some functions like loan()\r\n    address public chamaManager;\r\n    // Since I'm storing members in a mapping I need membersCount to keep track of the number of members\r\n    uint256 public membersCount;\r\n    // Monthly subscription\r\n    uint256 public premium;\r\n\r\n    // called once the contract is deployed\r\n    function Chama() public {\r\n        chamaManager = msg.sender;\r\n    }\r\n\r\n    struct Member {\r\n        uint256 memberID;\r\n        // Registration equals monthly premium a member will be subscribing to\r\n        uint256 premium;\r\n        address member;\r\n        uint256 registrationDate;\r\n        bool isActive;\r\n        bool hasLoaned;\r\n        bool hasEmergency;\r\n    }\r\n\r\n    mapping(uint256 => Member) public members;\r\n\r\n    function joinChama() public payable returns(uint)  {\r\n        require(msg.value > 2 ether);\r\n        premium = msg.value;\r\n        uint256 registrationTime = block.timestamp;\r\n        membersCount++;\r\n        // membersCount will serve as memberID\r\n        members[membersCount] = Member(\r\n            membersCount,\r\n            premium,\r\n            msg.sender,\r\n            registrationTime,\r\n            true,\r\n            false,\r\n            false\r\n        );\r\n         return(membersCount);\r\n    }\r\n\r\n    function checkSubscriptionStatus(uint _membersCount) public returns(bool){\r\n        // Epoch Unix time equivalence of 30 days\r\n        // I converted 30 days to Epoch Unix time equivalence i.e 408000\r\n        require(block.timestamp == members[_membersCount].registrationDate + 408000);\r\n        return(members[_membersCount].isActive = false);\r\n    }\r\n\r\n    function renewSubscription(uint _membersCount) public payable {\r\n        require(!checkSubscriptionStatus(_membersCount));\r\n        require(msg.value > 2 ether);\r\n        members[_membersCount].isActive = true;\r\n    }\r\n}\r\n",
  "sourcePath": "C:\\Users\\ronle\\OneDrive\\Desktop\\Solidity\\CryptoZombies\\cryptozombies-lesson-code\\sample-folder\\contracts\\Chama.sol",
  "compiler": {
    "name": "solc",
    "version": "0.4.17+commit.bdeb9e52.Emscripten.clang"
  },
  "schemaVersion": "3.4.6",
  "updatedAt": "2022-04-03T12:36:46.918Z",
  "devdoc": {
    "methods": {}
  },
  "userdoc": {
    "methods": {}
  }
}