{
  "contractName": "Chama",
  "abi": [
    {
      "constant": true,
      "inputs": [],
      "name": "membersToApproveCount",
      "outputs": [
        {
          "name": "",
          "type": "uint256"
        }
      ],
      "payable": false,
      "stateMutability": "view",
      "type": "function"
    },
    {
      "constant": true,
      "inputs": [],
      "name": "membersCount",
      "outputs": [
        {
          "name": "",
          "type": "uint256"
        }
      ],
      "payable": false,
      "stateMutability": "view",
      "type": "function"
    },
    {
      "constant": true,
      "inputs": [],
      "name": "chamaManager3",
      "outputs": [
        {
          "name": "",
          "type": "address"
        }
      ],
      "payable": false,
      "stateMutability": "view",
      "type": "function"
    },
    {
      "constant": true,
      "inputs": [
        {
          "name": "",
          "type": "uint256"
        }
      ],
      "name": "membersToChama",
      "outputs": [
        {
          "name": "",
          "type": "address"
        }
      ],
      "payable": false,
      "stateMutability": "view",
      "type": "function"
    },
    {
      "constant": true,
      "inputs": [],
      "name": "requestCount",
      "outputs": [
        {
          "name": "",
          "type": "uint256"
        }
      ],
      "payable": false,
      "stateMutability": "view",
      "type": "function"
    },
    {
      "constant": true,
      "inputs": [
        {
          "name": "",
          "type": "uint256"
        }
      ],
      "name": "approversToChama3",
      "outputs": [
        {
          "name": "",
          "type": "address"
        }
      ],
      "payable": false,
      "stateMutability": "view",
      "type": "function"
    },
    {
      "constant": true,
      "inputs": [
        {
          "name": "",
          "type": "uint256"
        }
      ],
      "name": "members",
      "outputs": [
        {
          "name": "memberID",
          "type": "uint256"
        },
        {
          "name": "member",
          "type": "address"
        },
        {
          "name": "chamaID",
          "type": "uint256"
        },
        {
          "name": "registrationDate",
          "type": "uint256"
        },
        {
          "name": "isActive",
          "type": "bool"
        },
        {
          "name": "hasLoaned",
          "type": "bool"
        },
        {
          "name": "hasEmergency",
          "type": "bool"
        },
        {
          "name": "hasBeenPaid",
          "type": "bool"
        }
      ],
      "payable": false,
      "stateMutability": "view",
      "type": "function"
    },
    {
      "constant": true,
      "inputs": [],
      "name": "chamaManager2",
      "outputs": [
        {
          "name": "",
          "type": "address"
        }
      ],
      "payable": false,
      "stateMutability": "view",
      "type": "function"
    },
    {
      "constant": true,
      "inputs": [
        {
          "name": "",
          "type": "uint256"
        }
      ],
      "name": "requests",
      "outputs": [
        {
          "name": "requestID",
          "type": "uint256"
        },
        {
          "name": "description",
          "type": "string"
        },
        {
          "name": "amount",
          "type": "uint256"
        },
        {
          "name": "recipient",
          "type": "address"
        },
        {
          "name": "chamaID",
          "type": "uint256"
        },
        {
          "name": "memberNo",
          "type": "uint256"
        },
        {
          "name": "complete",
          "type": "bool"
        },
        {
          "name": "approvalCount",
          "type": "uint256"
        }
      ],
      "payable": false,
      "stateMutability": "view",
      "type": "function"
    },
    {
      "constant": true,
      "inputs": [],
      "name": "approversCount",
      "outputs": [
        {
          "name": "",
          "type": "uint256"
        }
      ],
      "payable": false,
      "stateMutability": "view",
      "type": "function"
    },
    {
      "constant": true,
      "inputs": [
        {
          "name": "",
          "type": "uint256"
        }
      ],
      "name": "approversToChama2",
      "outputs": [
        {
          "name": "",
          "type": "address"
        }
      ],
      "payable": false,
      "stateMutability": "view",
      "type": "function"
    },
    {
      "constant": true,
      "inputs": [],
      "name": "chamaManager4",
      "outputs": [
        {
          "name": "",
          "type": "address"
        }
      ],
      "payable": false,
      "stateMutability": "view",
      "type": "function"
    },
    {
      "constant": true,
      "inputs": [
        {
          "name": "",
          "type": "uint256"
        }
      ],
      "name": "approversToChama4",
      "outputs": [
        {
          "name": "",
          "type": "address"
        }
      ],
      "payable": false,
      "stateMutability": "view",
      "type": "function"
    },
    {
      "constant": true,
      "inputs": [],
      "name": "memberFundCount",
      "outputs": [
        {
          "name": "",
          "type": "uint256"
        }
      ],
      "payable": false,
      "stateMutability": "view",
      "type": "function"
    },
    {
      "constant": true,
      "inputs": [],
      "name": "loanRequestCount",
      "outputs": [
        {
          "name": "",
          "type": "uint256"
        }
      ],
      "payable": false,
      "stateMutability": "view",
      "type": "function"
    },
    {
      "constant": true,
      "inputs": [],
      "name": "chamaCount",
      "outputs": [
        {
          "name": "",
          "type": "uint256"
        }
      ],
      "payable": false,
      "stateMutability": "view",
      "type": "function"
    },
    {
      "constant": true,
      "inputs": [],
      "name": "loanCount",
      "outputs": [
        {
          "name": "",
          "type": "uint256"
        }
      ],
      "payable": false,
      "stateMutability": "view",
      "type": "function"
    },
    {
      "constant": true,
      "inputs": [
        {
          "name": "",
          "type": "uint256"
        }
      ],
      "name": "loans",
      "outputs": [
        {
          "name": "loanID",
          "type": "uint256"
        },
        {
          "name": "memberID",
          "type": "uint256"
        },
        {
          "name": "chamaID",
          "type": "uint256"
        },
        {
          "name": "loaneeAddress",
          "type": "address"
        },
        {
          "name": "amount",
          "type": "uint256"
        },
        {
          "name": "dayAwarded",
          "type": "uint256"
        },
        {
          "name": "dueDate",
          "type": "uint256"
        },
        {
          "name": "hasBeenPaid",
          "type": "bool"
        }
      ],
      "payable": false,
      "stateMutability": "view",
      "type": "function"
    },
    {
      "constant": true,
      "inputs": [],
      "name": "chamaManager1",
      "outputs": [
        {
          "name": "",
          "type": "address"
        }
      ],
      "payable": false,
      "stateMutability": "view",
      "type": "function"
    },
    {
      "constant": true,
      "inputs": [
        {
          "name": "",
          "type": "uint256"
        }
      ],
      "name": "approversToChama1",
      "outputs": [
        {
          "name": "",
          "type": "address"
        }
      ],
      "payable": false,
      "stateMutability": "view",
      "type": "function"
    },
    {
      "anonymous": false,
      "inputs": [
        {
          "indexed": false,
          "name": "approvCount",
          "type": "uint256"
        },
        {
          "indexed": false,
          "name": "descr",
          "type": "string"
        },
        {
          "indexed": false,
          "name": "amt",
          "type": "uint256"
        },
        {
          "indexed": false,
          "name": "loanee",
          "type": "address"
        },
        {
          "indexed": false,
          "name": "membID",
          "type": "uint256"
        },
        {
          "indexed": false,
          "name": "status",
          "type": "bool"
        }
      ],
      "name": "NewLoanRequest",
      "type": "event"
    },
    {
      "anonymous": false,
      "inputs": [
        {
          "indexed": false,
          "name": "chamaCount",
          "type": "uint256"
        },
        {
          "indexed": false,
          "name": "name",
          "type": "string"
        },
        {
          "indexed": false,
          "name": "chamAddress",
          "type": "address"
        },
        {
          "indexed": false,
          "name": "regFee",
          "type": "uint256"
        },
        {
          "indexed": false,
          "name": "premium",
          "type": "uint256"
        },
        {
          "indexed": false,
          "name": "target",
          "type": "uint256"
        },
        {
          "indexed": false,
          "name": "date",
          "type": "uint256"
        },
        {
          "indexed": false,
          "name": "_reemittancePeriod",
          "type": "uint256"
        },
        {
          "indexed": false,
          "name": "chamMembers",
          "type": "address[]"
        },
        {
          "indexed": false,
          "name": "chamsEndDate",
          "type": "uint256"
        }
      ],
      "name": "NewChama",
      "type": "event"
    },
    {
      "constant": false,
      "inputs": [
        {
          "name": "_name",
          "type": "string"
        },
        {
          "name": "registrationFee",
          "type": "uint256"
        },
        {
          "name": "premium",
          "type": "uint256"
        },
        {
          "name": "target",
          "type": "uint256"
        },
        {
          "name": "_reemittancePeriod",
          "type": "uint256"
        }
      ],
      "name": "createRandomChama",
      "outputs": [
        {
          "name": "",
          "type": "uint256"
        },
        {
          "name": "",
          "type": "address"
        }
      ],
      "payable": true,
      "stateMutability": "payable",
      "type": "function"
    },
    {
      "constant": false,
      "inputs": [
        {
          "name": "chamaAddre",
          "type": "address"
        },
        {
          "name": "chamaCt",
          "type": "uint256"
        }
      ],
      "name": "joinChama",
      "outputs": [
        {
          "name": "",
          "type": "uint256"
        }
      ],
      "payable": true,
      "stateMutability": "payable",
      "type": "function"
    },
    {
      "constant": false,
      "inputs": [
        {
          "name": "_chamID",
          "type": "uint256"
        },
        {
          "name": "_membReceiving",
          "type": "address"
        }
      ],
      "name": "disburseDividends",
      "outputs": [],
      "payable": false,
      "stateMutability": "nonpayable",
      "type": "function"
    },
    {
      "constant": true,
      "inputs": [
        {
          "name": "_membersCount",
          "type": "uint256"
        }
      ],
      "name": "checkSubscriptionStatus",
      "outputs": [
        {
          "name": "",
          "type": "bool"
        }
      ],
      "payable": false,
      "stateMutability": "view",
      "type": "function"
    },
    {
      "constant": false,
      "inputs": [
        {
          "name": "_membersCount",
          "type": "uint256"
        }
      ],
      "name": "renewSubscription",
      "outputs": [],
      "payable": true,
      "stateMutability": "payable",
      "type": "function"
    },
    {
      "constant": false,
      "inputs": [
        {
          "name": "_description",
          "type": "string"
        },
        {
          "name": "_amount",
          "type": "uint256"
        },
        {
          "name": "_memberNo",
          "type": "uint256"
        },
        {
          "name": "_chmID",
          "type": "uint256"
        }
      ],
      "name": "createLoanRequest",
      "outputs": [],
      "payable": false,
      "stateMutability": "nonpayable",
      "type": "function"
    },
    {
      "constant": false,
      "inputs": [
        {
          "name": "_requestID",
          "type": "uint256"
        },
        {
          "name": "_approverID",
          "type": "uint256"
        },
        {
          "name": "_chamsId",
          "type": "uint256"
        }
      ],
      "name": "approveLoanRequest",
      "outputs": [],
      "payable": false,
      "stateMutability": "nonpayable",
      "type": "function"
    },
    {
      "constant": false,
      "inputs": [
        {
          "name": "_requestID",
          "type": "uint256"
        }
      ],
      "name": "awardLoanRequest",
      "outputs": [],
      "payable": false,
      "stateMutability": "nonpayable",
      "type": "function"
    },
    {
      "constant": false,
      "inputs": [
        {
          "name": "_loanId",
          "type": "uint256"
        }
      ],
      "name": "payLoanAwarded",
      "outputs": [
        {
          "name": "",
          "type": "bool"
        }
      ],
      "payable": true,
      "stateMutability": "payable",
      "type": "function"
    },
    {
      "constant": false,
      "inputs": [],
      "name": "endChama",
      "outputs": [],
      "payable": false,
      "stateMutability": "nonpayable",
      "type": "function"
    }
  ],
  "bytecode": "0x60806040526001600b5534801561001557600080fd5b50613437806100256000396000f300608060405260043610610180576000357c0100000000000000000000000000000000000000000000000000000000900463ffffffff16806307a6afb1146101855780630f6745bc146101d257806319e75ec7146101fd5780631fd68fb2146102c857806325d1afae1461034f578063297f9af0146103a35780633b16b5d5146103ce57806340e75ea01461042557806342a3844a1461046a578063466d6793146104d75780635badbe4c1461050f5780635c1d90391461053a5780635daf08ca146105a757806376a4598c1461065557806381d12c58146106ac57806382fde093146107b35780638eba8689146107de5780638fe433071461084b57806394b22516146108a25780639fccd5e8146108e3578063a4357ba6146108fa578063aa2630c914610967578063afcefe9714610994578063b786f978146109bf578063c087e28b146109ea578063ce63094d14610a15578063d71bb37b14610a40578063e1ec3c6814610a60578063ee69f40714610b02578063f8c6ee1914610b59575b600080fd5b34801561019157600080fd5b506101d060048036038101908080359060200190929190803573ffffffffffffffffffffffffffffffffffffffff169060200190929190505050610bc6565b005b3480156101de57600080fd5b506101e7610e0c565b6040518082815260200191505060405180910390f35b61027f600480360381019080803590602001908201803590602001908080601f016020809104026020016040519081016040528093929190818152602001838380828437820191505050505050919291929080359060200190929190803590602001909291908035906020019092919080359060200190929190505050610e12565b604051808381526020018273ffffffffffffffffffffffffffffffffffffffff1673ffffffffffffffffffffffffffffffffffffffff1681526020019250505060405180910390f35b3480156102d457600080fd5b5061034d600480360381019080803590602001908201803590602001908080601f01602080910402602001604051908101604052809392919081815260200183838082843782019150505050505091929192908035906020019092919080359060200190929190803590602001909291905050506117ea565b005b61038d600480360381019080803573ffffffffffffffffffffffffffffffffffffffff16906020019092919080359060200190929190505050611e10565b6040518082815260200191505060405180910390f35b3480156103af57600080fd5b506103b8612296565b6040518082815260200191505060405180910390f35b3480156103da57600080fd5b506103e361229c565b604051808273ffffffffffffffffffffffffffffffffffffffff1673ffffffffffffffffffffffffffffffffffffffff16815260200191505060405180910390f35b34801561043157600080fd5b50610450600480360381019080803590602001909291905050506122c2565b604051808215151515815260200191505060405180910390f35b34801561047657600080fd5b506104956004803603810190808035906020019092919050505061230c565b604051808273ffffffffffffffffffffffffffffffffffffffff1673ffffffffffffffffffffffffffffffffffffffff16815260200191505060405180910390f35b6104f56004803603810190808035906020019092919050505061233f565b604051808215151515815260200191505060405180910390f35b34801561051b57600080fd5b506105246125ac565b6040518082815260200191505060405180910390f35b34801561054657600080fd5b50610565600480360381019080803590602001909291905050506125b2565b604051808273ffffffffffffffffffffffffffffffffffffffff1673ffffffffffffffffffffffffffffffffffffffff16815260200191505060405180910390f35b3480156105b357600080fd5b506105d2600480360381019080803590602001909291905050506125e5565b604051808981526020018873ffffffffffffffffffffffffffffffffffffffff1673ffffffffffffffffffffffffffffffffffffffff168152602001878152602001868152602001851515151581526020018415151515815260200183151515158152602001821515151581526020019850505050505050505060405180910390f35b34801561066157600080fd5b5061066a612690565b604051808273ffffffffffffffffffffffffffffffffffffffff1673ffffffffffffffffffffffffffffffffffffffff16815260200191505060405180910390f35b3480156106b857600080fd5b506106d7600480360381019080803590602001909291905050506126b6565b60405180898152602001806020018881526020018773ffffffffffffffffffffffffffffffffffffffff1673ffffffffffffffffffffffffffffffffffffffff16815260200186815260200185815260200184151515158152602001838152602001828103825289818151815260200191508051906020019080838360005b83811015610771578082015181840152602081019050610756565b50505050905090810190601f16801561079e5780820380516001836020036101000a031916815260200191505b50995050505050505050505060405180910390f35b3480156107bf57600080fd5b506107c86127d2565b6040518082815260200191505060405180910390f35b3480156107ea57600080fd5b50610809600480360381019080803590602001909291905050506127d8565b604051808273ffffffffffffffffffffffffffffffffffffffff1673ffffffffffffffffffffffffffffffffffffffff16815260200191505060405180910390f35b34801561085757600080fd5b5061086061280b565b604051808273ffffffffffffffffffffffffffffffffffffffff1673ffffffffffffffffffffffffffffffffffffffff16815260200191505060405180910390f35b3480156108ae57600080fd5b506108e1600480360381019080803590602001909291908035906020019092919080359060200190929190505050612831565b005b3480156108ef57600080fd5b506108f8612b02565b005b34801561090657600080fd5b5061092560048036038101908080359060200190929190505050612bde565b604051808273ffffffffffffffffffffffffffffffffffffffff1673ffffffffffffffffffffffffffffffffffffffff16815260200191505060405180910390f35b34801561097357600080fd5b5061099260048036038101908080359060200190929190505050612c11565b005b3480156109a057600080fd5b506109a9613076565b6040518082815260200191505060405180910390f35b3480156109cb57600080fd5b506109d461307c565b6040518082815260200191505060405180910390f35b3480156109f657600080fd5b506109ff613082565b6040518082815260200191505060405180910390f35b348015610a2157600080fd5b50610a2a613088565b6040518082815260200191505060405180910390f35b610a5e6004803603810190808035906020019092919050505061308e565b005b348015610a6c57600080fd5b50610a8b60048036038101908080359060200190929190505050613154565b604051808981526020018881526020018781526020018673ffffffffffffffffffffffffffffffffffffffff1673ffffffffffffffffffffffffffffffffffffffff168152602001858152602001848152602001838152602001821515151581526020019850505050505050505060405180910390f35b348015610b0e57600080fd5b50610b176131d8565b604051808273ffffffffffffffffffffffffffffffffffffffff1673ffffffffffffffffffffffffffffffffffffffff16815260200191505060405180910390f35b348015610b6557600080fd5b50610b84600480360381019080803590602001909291905050506131fd565b604051808273ffffffffffffffffffffffffffffffffffffffff1673ffffffffffffffffffffffffffffffffffffffff16815260200191505060405180910390f35b620639c06017600084815260200190815260200160002060060154014210151515610bf057600080fd5b60001515600f60008373ffffffffffffffffffffffffffffffffffffffff1673ffffffffffffffffffffffffffffffffffffffff16815260200190815260200160002060009054906101000a900460ff161515141515610c4f57600080fd5b6009600081548092919060010191905055506010600954815481101515610c7257fe5b906000526020600020906005020160010160009054906101000a900473ffffffffffffffffffffffffffffffffffffffff1673ffffffffffffffffffffffffffffffffffffffff166108fc606460326017600087815260200190815260200160002060020160009054906101000a900473ffffffffffffffffffffffffffffffffffffffff1673ffffffffffffffffffffffffffffffffffffffff163102811515610d1957fe5b049081150290604051600060405180830381858888f19350505050158015610d45573d6000803e3d6000fd5b5042601760008481526020019081526020016000206006018190555060016010600954815481101515610d7457fe5b906000526020600020906005020160040160036101000a81548160ff0219169083151502179055506001600f60008373ffffffffffffffffffffffffffffffffffffffff1673ffffffffffffffffffffffffffffffffffffffff16815260200190815260200160002060006101000a81548160ff021916908315150217905550600c6009541115610e085760006009819055505b5050565b600b5481565b600080600080606060006729a2241af62c00003410151515610e3357600080fd5b600073ffffffffffffffffffffffffffffffffffffffff166000809054906101000a900473ffffffffffffffffffffffffffffffffffffffff1673ffffffffffffffffffffffffffffffffffffffff161480610edd5750600073ffffffffffffffffffffffffffffffffffffffff16600160009054906101000a900473ffffffffffffffffffffffffffffffffffffffff1673ffffffffffffffffffffffffffffffffffffffff16145b80610f365750600073ffffffffffffffffffffffffffffffffffffffff16600260009054906101000a900473ffffffffffffffffffffffffffffffffffffffff1673ffffffffffffffffffffffffffffffffffffffff16145b80610f8f5750600073ffffffffffffffffffffffffffffffffffffffff16600360009054906101000a900473ffffffffffffffffffffffffffffffffffffffff1673ffffffffffffffffffffffffffffffffffffffff16145b1515610f9a57600080fd5b600073ffffffffffffffffffffffffffffffffffffffff166000809054906101000a900473ffffffffffffffffffffffffffffffffffffffff1673ffffffffffffffffffffffffffffffffffffffff1614806110445750600073ffffffffffffffffffffffffffffffffffffffff16600160009054906101000a900473ffffffffffffffffffffffffffffffffffffffff1673ffffffffffffffffffffffffffffffffffffffff16145b8061109d5750600073ffffffffffffffffffffffffffffffffffffffff16600260009054906101000a900473ffffffffffffffffffffffffffffffffffffffff1673ffffffffffffffffffffffffffffffffffffffff16145b806110f65750600073ffffffffffffffffffffffffffffffffffffffff16600360009054906101000a900473ffffffffffffffffffffffffffffffffffffffff1673ffffffffffffffffffffffffffffffffffffffff16145b1561116457336000806101000a81548173ffffffffffffffffffffffffffffffffffffffff021916908373ffffffffffffffffffffffffffffffffffffffff1602179055506000809054906101000a900473ffffffffffffffffffffffffffffffffffffffff169350611526565b600073ffffffffffffffffffffffffffffffffffffffff16600160009054906101000a900473ffffffffffffffffffffffffffffffffffffffff1673ffffffffffffffffffffffffffffffffffffffff16148061120f5750600073ffffffffffffffffffffffffffffffffffffffff16600260009054906101000a900473ffffffffffffffffffffffffffffffffffffffff1673ffffffffffffffffffffffffffffffffffffffff16145b806112685750600073ffffffffffffffffffffffffffffffffffffffff16600360009054906101000a900473ffffffffffffffffffffffffffffffffffffffff1673ffffffffffffffffffffffffffffffffffffffff16145b156112d85733600160006101000a81548173ffffffffffffffffffffffffffffffffffffffff021916908373ffffffffffffffffffffffffffffffffffffffff160217905550600160009054906101000a900473ffffffffffffffffffffffffffffffffffffffff169350611525565b600073ffffffffffffffffffffffffffffffffffffffff16600260009054906101000a900473ffffffffffffffffffffffffffffffffffffffff1673ffffffffffffffffffffffffffffffffffffffff1614806113835750600073ffffffffffffffffffffffffffffffffffffffff16600360009054906101000a900473ffffffffffffffffffffffffffffffffffffffff1673ffffffffffffffffffffffffffffffffffffffff16145b156113f35733600260006101000a81548173ffffffffffffffffffffffffffffffffffffffff021916908373ffffffffffffffffffffffffffffffffffffffff160217905550600260009054906101000a900473ffffffffffffffffffffffffffffffffffffffff169350611524565b600073ffffffffffffffffffffffffffffffffffffffff16600360009054906101000a900473ffffffffffffffffffffffffffffffffffffffff1673ffffffffffffffffffffffffffffffffffffffff1614156114b55733600360006101000a81548173ffffffffffffffffffffffffffffffffffffffff021916908373ffffffffffffffffffffffffffffffffffffffff160217905550600360009054906101000a900473ffffffffffffffffffffffffffffffffffffffff169350611523565b6040517f08c379a00000000000000000000000000000000000000000000000000000000081526004018080602001828103825260188152602001807f53746f70206372656174696e6720746865206368616d6121000000000000000081525060200191505060405180910390fd5b5b5b5b600660008154809291906001019190505550429250624ab50090506101406040519081016040528060065481526020018c81526020018573ffffffffffffffffffffffffffffffffffffffff1681526020018b81526020018a8152602001898152602001848152602001888152602001838152602001828152506017600060065481526020019081526020016000206000820151816000015560208201518160010190805190602001906115db929190613230565b5060408201518160020160006101000a81548173ffffffffffffffffffffffffffffffffffffffff021916908373ffffffffffffffffffffffffffffffffffffffff160217905550606082015181600301556080820151816004015560a0820151816005015560c0820151816006015560e082015181600701556101008201518160080190805190602001906116729291906132b0565b5061012082015181600901559050507fe8cbc7de3e7d78cd22d00dc7244b12c466a9c0062f2e068295a9e2f3132379d96006548c868d8d8d898e8a8a604051808b8152602001806020018a73ffffffffffffffffffffffffffffffffffffffff1673ffffffffffffffffffffffffffffffffffffffff1681526020018981526020018881526020018781526020018681526020018581526020018060200184815260200183810383528c818151815260200191508051906020019080838360005b8381101561174e578082015181840152602081019050611733565b50505050905090810190601f16801561177b5780820380516001836020036101000a031916815260200191505b50838103825285818151815260200191508051906020019060200280838360005b838110156117b757808201518184015260208101905061179c565b505050509050019c5050505050505050505050505060405180910390a16006548495509550505050509550959350505050565b60008060008033935060009150600a60008154809291906001019190505550601161010060405190810160405280600a5481526020018a81526020018981526020018673ffffffffffffffffffffffffffffffffffffffff168152602001878152602001888152602001841515815260200185815250908060018154018082558091505090600182039060005260206000209060080201600090919290919091506000820151816000015560208201518160010190805190602001906118b1929190613230565b506040820151816002015560608201518160030160006101000a81548173ffffffffffffffffffffffffffffffffffffffff021916908373ffffffffffffffffffffffffffffffffffffffff1602179055506080820151816004015560a0820151816005015560c08201518160060160006101000a81548160ff02191690831515021790555060e08201518160070155505050600090505b6017600086815260200190815260200160002060080180549050811015611d12576001851415611a2b57601760008681526020019081526020016000206008018181548110151561199657fe5b9060005260206000200160009054906101000a900473ffffffffffffffffffffffffffffffffffffffff1660136000600b54815260200190815260200160002060006101000a81548173ffffffffffffffffffffffffffffffffffffffff021916908373ffffffffffffffffffffffffffffffffffffffff160217905550600b60008154809291906001019190505550611d05565b6002851415611aec576017600086815260200190815260200160002060080181815481101515611a5757fe5b9060005260206000200160009054906101000a900473ffffffffffffffffffffffffffffffffffffffff1660146000600b54815260200190815260200160002060006101000a81548173ffffffffffffffffffffffffffffffffffffffff021916908373ffffffffffffffffffffffffffffffffffffffff160217905550600b60008154809291906001019190505550611d04565b6003851415611bad576017600086815260200190815260200160002060080181815481101515611b1857fe5b9060005260206000200160009054906101000a900473ffffffffffffffffffffffffffffffffffffffff1660156000600b54815260200190815260200160002060006101000a81548173ffffffffffffffffffffffffffffffffffffffff021916908373ffffffffffffffffffffffffffffffffffffffff160217905550600b60008154809291906001019190505550611d03565b6004851415611c6e576017600086815260200190815260200160002060080181815481101515611bd957fe5b9060005260206000200160009054906101000a900473ffffffffffffffffffffffffffffffffffffffff1660166000600b54815260200190815260200160002060006101000a81548173ffffffffffffffffffffffffffffffffffffffff021916908373ffffffffffffffffffffffffffffffffffffffff160217905550600b60008154809291906001019190505550611d02565b6040517f08c379a00000000000000000000000000000000000000000000000000000000081526004018080602001828103825260228152602001807f4368616d612077697468207468617420494420646f6573206e6f74206578697381526020017f742100000000000000000000000000000000000000000000000000000000000081525060400191505060405180910390fd5b5b5b5b8080600101915050611949565b7f4914c87a5b1143f407f6924cc93cfc92abac683355da6918a3a92d5cc97317b2838989878a8760405180878152602001806020018681526020018573ffffffffffffffffffffffffffffffffffffffff1673ffffffffffffffffffffffffffffffffffffffff16815260200184815260200183151515158152602001828103825287818151815260200191508051906020019080838360005b83811015611dc7578082015181840152602081019050611dac565b50505050905090810190601f168015611df45780820380516001836020036101000a031916815260200191505b5097505050505050505060405180910390a15050505050505050565b60008060008060009054906101000a900473ffffffffffffffffffffffffffffffffffffffff1673ffffffffffffffffffffffffffffffffffffffff168573ffffffffffffffffffffffffffffffffffffffff161480611ebd5750600160009054906101000a900473ffffffffffffffffffffffffffffffffffffffff1673ffffffffffffffffffffffffffffffffffffffff168573ffffffffffffffffffffffffffffffffffffffff16145b80611f155750600260009054906101000a900473ffffffffffffffffffffffffffffffffffffffff1673ffffffffffffffffffffffffffffffffffffffff168573ffffffffffffffffffffffffffffffffffffffff16145b80611f6d5750600360009054906101000a900473ffffffffffffffffffffffffffffffffffffffff1673ffffffffffffffffffffffffffffffffffffffff168573ffffffffffffffffffffffffffffffffffffffff16145b1515611f7857600080fd5b600c600d60008773ffffffffffffffffffffffffffffffffffffffff1673ffffffffffffffffffffffffffffffffffffffff1681526020019081526020016000205411151515611fc757600080fd5b60176000858152602001908152602001600020600301543410151515611fec57600080fd5b429150600460008154809291906001019190505550600160106101006040519081016040528060045481526020013373ffffffffffffffffffffffffffffffffffffffff16815260200187815260200185815260200160011515815260200160001515815260200160001515815260200160001515815250908060018154018082558091505090600182039060005260206000209060050201600090919290919091506000820151816000015560208201518160010160006101000a81548173ffffffffffffffffffffffffffffffffffffffff021916908373ffffffffffffffffffffffffffffffffffffffff160217905550604082015181600201556060820151816003015560808201518160040160006101000a81548160ff02191690831515021790555060a08201518160040160016101000a81548160ff02191690831515021790555060c08201518160040160026101000a81548160ff02191690831515021790555060e08201518160040160036101000a81548160ff021916908315150217905550505003905084600c600083815260200190815260200160002060006101000a81548173ffffffffffffffffffffffffffffffffffffffff021916908373ffffffffffffffffffffffffffffffffffffffff160217905550600454600d60008773ffffffffffffffffffffffffffffffffffffffff1673ffffffffffffffffffffffffffffffffffffffff16815260200190815260200160002081905550601760008581526020019081526020016000206008013390806001815401808255809150509060018203906000526020600020016000909192909190916101000a81548173ffffffffffffffffffffffffffffffffffffffff021916908373ffffffffffffffffffffffffffffffffffffffff16021790555050809250505092915050565b60045481565b600260009054906101000a900473ffffffffffffffffffffffffffffffffffffffff1681565b600080620639c06010848154811015156122d857fe5b906000526020600020906005020160030154014214156122fe5760019050809150612306565b600090508091505b50919050565b600c6020528060005260406000206000915054906101000a900473ffffffffffffffffffffffffffffffffffffffff1681565b60008060008060008060128781548110151561235757fe5b906000526020600020906008020160070160009054906101000a900460ff1615151561238257600080fd5b60128781548110151561239157fe5b90600052602060002090600802016006015494504293506012878154811015156123b757fe5b90600052602060002090600802016004015492506012878154811015156123da57fe5b906000526020600020906008020160010154905084841115156124455782341015151561240657600080fd5b600160128881548110151561241757fe5b906000526020600020906008020160070160006101000a81548160ff021916908315150217905595506125a2565b848411156125a157620639c08501841015156124bb5760646066840281151561246a57fe5b04915081341015151561247c57600080fd5b600160128881548110151561248d57fe5b906000526020600020906008020160070160006101000a81548160ff021916908315150217905595506125a2565b620c7380850184101515612529576064606884028115156124d857fe5b0491508134101515156124ea57600080fd5b60016012888154811015156124fb57fe5b906000526020600020906008020160070160006101000a81548160ff021916908315150217905595506125a2565b600060108281548110151561253a57fe5b906000526020600020906005020160040160006101000a81548160ff021916908315150217905550600060128881548110151561257357fe5b906000526020600020906008020160070160006101000a81548160ff021916908315150217905595506125a2565b5b5050505050919050565b60075481565b60156020528060005260406000206000915054906101000a900473ffffffffffffffffffffffffffffffffffffffff1681565b6010818154811015156125f457fe5b90600052602060002090600502016000915090508060000154908060010160009054906101000a900473ffffffffffffffffffffffffffffffffffffffff16908060020154908060030154908060040160009054906101000a900460ff16908060040160019054906101000a900460ff16908060040160029054906101000a900460ff16908060040160039054906101000a900460ff16905088565b600160009054906101000a900473ffffffffffffffffffffffffffffffffffffffff1681565b6011818154811015156126c557fe5b9060005260206000209060080201600091509050806000015490806001018054600181600116156101000203166002900480601f0160208091040260200160405190810160405280929190818152602001828054600181600116156101000203166002900480156127775780601f1061274c57610100808354040283529160200191612777565b820191906000526020600020905b81548152906001019060200180831161275a57829003601f168201915b5050505050908060020154908060030160009054906101000a900473ffffffffffffffffffffffffffffffffffffffff16908060040154908060050154908060060160009054906101000a900460ff16908060070154905088565b60085481565b60146020528060005260406000206000915054906101000a900473ffffffffffffffffffffffffffffffffffffffff1681565b600360009054906101000a900473ffffffffffffffffffffffffffffffffffffffff1681565b60018114156128ac573373ffffffffffffffffffffffffffffffffffffffff166013600084815260200190815260200160002060009054906101000a900473ffffffffffffffffffffffffffffffffffffffff1673ffffffffffffffffffffffffffffffffffffffff161415156128a757600080fd5b612a1c565b6002811415612927573373ffffffffffffffffffffffffffffffffffffffff166014600084815260200190815260200160002060009054906101000a900473ffffffffffffffffffffffffffffffffffffffff1673ffffffffffffffffffffffffffffffffffffffff1614151561292257600080fd5b612a1b565b60038114156129a2573373ffffffffffffffffffffffffffffffffffffffff166015600084815260200190815260200160002060009054906101000a900473ffffffffffffffffffffffffffffffffffffffff1673ffffffffffffffffffffffffffffffffffffffff1614151561299d57600080fd5b612a1a565b6004811415612a19573373ffffffffffffffffffffffffffffffffffffffff166016600084815260200190815260200160002060009054906101000a900473ffffffffffffffffffffffffffffffffffffffff1673ffffffffffffffffffffffffffffffffffffffff16141515612a1857600080fd5b5b5b5b5b600e60003373ffffffffffffffffffffffffffffffffffffffff1673ffffffffffffffffffffffffffffffffffffffff16815260200190815260200160002060009054906101000a900460ff16151515612a7557600080fd5b601183815481101515612a8457fe5b9060005260206000209060080201600701600081548092919060010191905055506001600e60003373ffffffffffffffffffffffffffffffffffffffff1673ffffffffffffffffffffffffffffffffffffffff16815260200190815260200160002060006101000a81548160ff021916908315150217905550505050565b6000600190505b60065481111515612bdb576201518060176000838152602001908152602001600020600901540142101515612bce5760176000828152602001908152602001600020600080820160009055600182016000612b64919061333a565b6002820160006101000a81549073ffffffffffffffffffffffffffffffffffffffff021916905560038201600090556004820160009055600582016000905560068201600090556007820160009055600882016000612bc39190613382565b600982016000905550505b8080600101915050612b09565b50565b60166020528060005260406000206000915054906101000a900473ffffffffffffffffffffffffffffffffffffffff1681565b6000806000806000601186815481101515612c2857fe5b9060005260206000209060080201600501549450601085815481101515612c4b57fe5b906000526020600020906005020160040160009054906101000a900460ff161515612c7557600080fd5b6006601187815481101515612c8657fe5b90600052602060002090600802016007015410151515612ca557600080fd5b601186815481101515612cb457fe5b906000526020600020906008020160060160009054906101000a900460ff16151515612cdf57600080fd5b601186815481101515612cee57fe5b906000526020600020906008020160030160009054906101000a900473ffffffffffffffffffffffffffffffffffffffff1673ffffffffffffffffffffffffffffffffffffffff166108fc606460056017600060118c815481101515612d5057fe5b906000526020600020906008020160040154815260200190815260200160002060020160009054906101000a900473ffffffffffffffffffffffffffffffffffffffff1673ffffffffffffffffffffffffffffffffffffffff163102811515612db557fe5b049081150290604051600060405180830381858888f19350505050158015612de1573d6000803e3d6000fd5b506001601187815481101515612df357fe5b906000526020600020906008020160060160006101000a81548160ff021916908315150217905550429350620639c08401925060176000601188815481101515612e3957fe5b906000526020600020906008020160040154815260200190815260200160002060020160009054906101000a900473ffffffffffffffffffffffffffffffffffffffff169150601085815481101515612e8e57fe5b906000526020600020906005020160010160009054906101000a900473ffffffffffffffffffffffffffffffffffffffff169050600560008154809291906001019190505550610100604051908101604052806005548152602001868152602001601188815481101515612efe57fe5b90600052602060002090600802016004015481526020018273ffffffffffffffffffffffffffffffffffffffff168152602001606460058573ffffffffffffffffffffffffffffffffffffffff163102811515612f5757fe5b048152602001858152602001848152602001600015158152506012600554815481101515612f8157fe5b906000526020600020906008020160008201518160000155602082015181600101556040820151816002015560608201518160030160006101000a81548173ffffffffffffffffffffffffffffffffffffffff021916908373ffffffffffffffffffffffffffffffffffffffff1602179055506080820151816004015560a0820151816005015560c0820151816006015560e08201518160070160006101000a81548160ff021916908315150217905550905050600160108681548110151561304657fe5b906000526020600020906005020160040160016101000a81548160ff021916908315150217905550505050505050565b60095481565b600a5481565b60065481565b60055481565b600080151561309c836122c2565b15151415156130aa57600080fd5b6010828154811015156130b957fe5b9060005260206000209060050201600201549050601760008281526020019081526020016000206004015434101515156130f257600080fd5b4260108381548110151561310257fe5b906000526020600020906005020160030181905550600160108381548110151561312857fe5b906000526020600020906005020160040160006101000a81548160ff0219169083151502179055505050565b60128181548110151561316357fe5b90600052602060002090600802016000915090508060000154908060010154908060020154908060030160009054906101000a900473ffffffffffffffffffffffffffffffffffffffff16908060040154908060050154908060060154908060070160009054906101000a900460ff16905088565b6000809054906101000a900473ffffffffffffffffffffffffffffffffffffffff1681565b60136020528060005260406000206000915054906101000a900473ffffffffffffffffffffffffffffffffffffffff1681565b828054600181600116156101000203166002900490600052602060002090601f016020900481019282601f1061327157805160ff191683800117855561329f565b8280016001018555821561329f579182015b8281111561329e578251825591602001919060010190613283565b5b5090506132ac91906133a3565b5090565b828054828255906000526020600020908101928215613329579160200282015b828111156133285782518260006101000a81548173ffffffffffffffffffffffffffffffffffffffff021916908373ffffffffffffffffffffffffffffffffffffffff160217905550916020019190600101906132d0565b5b50905061333691906133c8565b5090565b50805460018160011615610100020316600290046000825580601f10613360575061337f565b601f01602090049060005260206000209081019061337e91906133a3565b5b50565b50805460008255906000526020600020908101906133a091906133a3565b50565b6133c591905b808211156133c15760008160009055506001016133a9565b5090565b90565b61340891905b8082111561340457600081816101000a81549073ffffffffffffffffffffffffffffffffffffffff0219169055506001016133ce565b5090565b905600a165627a7a723058203c6eb906f21f5c367d9915ecb7fbbeed36b6cccef6eba233882de50a687719e30029",
  "source": "// SPDX-License-Identifier: MIT\r\npragma solidity ^0.4.25;\r\n\r\n/**\r\n * @title Chama\r\n * @dev Blockchain Chama System\r\n * This simplifies the implementation of \"Women Chamas \".\r\n */\r\n\r\ncontract Chama {\r\n    // Chama Managers will be required to create chamas and will be responsible for disbursing dividends for emergency and loans\r\n    // To be a chama Manager you'll have to a minimum of 3eth\r\n    address public chamaManager1;\r\n    address public chamaManager2;\r\n    address public chamaManager3;\r\n    address public chamaManager4;\r\n    // Since I'm storing members in a mapping I need membersCount to keep track of the number of members\r\n    uint256 public membersCount;\r\n    uint256 public loanCount;\r\n    uint256 public chamaCount;\r\n    uint256 public requestCount;\r\n    uint256 public approversCount;\r\n    uint256 public memberFundCount;\r\n    uint256 public loanRequestCount;\r\n    uint256 public membersToApproveCount = 1;\r\n\r\n    struct Member {\r\n        uint256 memberID;\r\n        address member;\r\n        uint256 chamaID;\r\n        uint256 registrationDate;\r\n        bool isActive;\r\n        bool hasLoaned;\r\n        bool hasEmergency;\r\n        bool hasBeenPaid;\r\n    }\r\n\r\n    // keeps track of the members of a specific chama\r\n    mapping(uint256 => address) public membersToChama;\r\n    // keeps track of the numbers of members of a specific chama\r\n    mapping(address => uint256) chamaMembersCount;\r\n    // membApproved is used to keep track of the members who have approved a loan request so that a member doesn't approve more than once\r\n    mapping(address => bool) membHasAlreadyApproved;\r\n    // memberPaidStatus is meant to keep track the payment status of chama members\r\n    mapping(address => bool) memberPaidStatus;\r\n\r\n    Member[] public members;\r\n\r\n    struct ChamaDetails {\r\n        uint256 chamaID;\r\n        string _name;\r\n        address chamaManager;\r\n        uint256 registrationFee;\r\n        uint256 premium;\r\n        uint256 target;\r\n        uint256 creationDate;\r\n        // disbusrement period will be the amount of time it take before funds are disbursed i.e 1 month or a week\r\n        uint256 disbursementPeriod;\r\n        address[] chamaMembers;\r\n        uint256 endDate;\r\n    }\r\n\r\n    // store details about request for loan or emergencyLoan\r\n    struct Request {\r\n        uint256 requestID;\r\n        string description;\r\n        uint256 amount;\r\n        address recipient;\r\n        uint256 chamaID;\r\n        uint256 memberNo;\r\n        bool complete;\r\n        uint256 approvalCount;\r\n    }\r\n    struct Loan {\r\n        uint256 loanID;\r\n        uint256 memberID;\r\n        uint256 chamaID;\r\n        address loaneeAddress;\r\n        uint256 amount;\r\n        uint256 dayAwarded;\r\n        uint256 dueDate;\r\n        bool hasBeenPaid;\r\n    }\r\n\r\n    Request[] public requests;\r\n    Loan[] public loans;\r\n    // mapping will include chama members who need to approve\r\n    mapping(uint256 => address) public approversToChama1;\r\n    mapping(uint256 => address) public approversToChama2;\r\n    mapping(uint256 => address) public approversToChama3;\r\n    mapping(uint256 => address) public approversToChama4;\r\n    //mapping(address => bool) public approvers;\r\n\r\n    mapping(uint256 => ChamaDetails) chamas;\r\n\r\n    event NewLoanRequest(\r\n        uint256 approvCount,\r\n        string descr,\r\n        uint256 amt,\r\n        address loanee,\r\n        uint256 membID,\r\n        bool status\r\n    );\r\n\r\n    event NewChama(\r\n        uint256 chamaCount,\r\n        string name,\r\n        address chamAddress,\r\n        uint256 regFee,\r\n        uint256 premium,\r\n        uint256 target,\r\n        uint256 date,\r\n        uint256 _reemittancePeriod,\r\n        address[] chamMembers,\r\n        uint256 chamsEndDate\r\n    );\r\n\r\n    // The address that deploys this contract will be chamaManager1\r\n    // Constructor\r\n    /** constructor(\r\n        string _nam,\r\n        string _registrationFee,\r\n        string _premium,\r\n        string _target,\r\n        uint256 _reemittancePeriod\r\n    ) public {\r\n        chamaCount++;\r\n        chamaManager1 = msg.sender;\r\n        uint256 time = block.timestamp;\r\n        address[] memory membs;\r\n        // 4896000 is Epoch Unix time equivalence of a year\r\n        chamas[chamaCount] = ChamaDetails(\r\n            chamaCount,\r\n            _nam,\r\n            chamaManager1,\r\n            _registrationFee,\r\n            _premium,\r\n            _target,\r\n            time,\r\n            _reemittancePeriod,\r\n            membs,\r\n            4896000\r\n        );\r\n        //return(chamaCount);\r\n    } */\r\n\r\n    // function to create a Chama\r\n    function createRandomChama(\r\n        string _name,\r\n        uint256 registrationFee,\r\n        uint256 premium,\r\n        uint256 target,\r\n        uint256 _reemittancePeriod\r\n    ) public payable returns (uint256, address) {\r\n        // For one to be a chama Manager he or she must be willing to pay 3 ether\r\n        require(msg.value >= 3 ether);\r\n        require(\r\n            chamaManager1 == address(0) ||\r\n            chamaManager2 == address(0) ||\r\n            chamaManager3 == address(0) ||\r\n            chamaManager4 == address(0)\r\n        );\r\n        // chamaAdd will be the Chama Address which will be equal to ChamaManager's address\r\n        address chamaAdd;\r\n        uint256 date;\r\n        // chamaManager address will be the\r\n        if (\r\n            chamaManager1 == address(0) ||\r\n            chamaManager2 == address(0) ||\r\n            chamaManager3 == address(0) ||\r\n            chamaManager4 == address(0)\r\n        ) {\r\n            chamaManager1 = msg.sender;\r\n            chamaAdd = chamaManager1;\r\n        } else if (\r\n            chamaManager2 == address(0) ||\r\n            chamaManager3 == address(0) ||\r\n            chamaManager4 == address(0)\r\n        ) {\r\n            // assign to chamaManager2\r\n            chamaManager2 = msg.sender;\r\n            chamaAdd = chamaManager2;\r\n        } else if (chamaManager3 == address(0) || chamaManager4 == address(0)) {\r\n            // assign to chamaManager3\r\n            chamaManager3 = msg.sender;\r\n            chamaAdd = chamaManager3;\r\n        } else if (chamaManager4 == address(0)) {\r\n            // assign to chamaManager4\r\n            chamaManager4 = msg.sender;\r\n            chamaAdd = chamaManager4;\r\n        } else {\r\n            // stop creating a random chama\r\n            revert(\"Stop creating the chama!\");\r\n        }\r\n        chamaCount++;\r\n        date = block.timestamp;\r\n        address[] memory mbrs;\r\n        uint256 endingDate = 4896000;\r\n        chamas[chamaCount] = ChamaDetails(\r\n            chamaCount,\r\n            _name,\r\n            chamaAdd,\r\n            registrationFee,\r\n            premium,\r\n            target,\r\n            date,\r\n            _reemittancePeriod,\r\n            mbrs,\r\n            endingDate\r\n        );\r\n        emit NewChama(\r\n            chamaCount,\r\n            _name,\r\n            chamaAdd,\r\n            registrationFee,\r\n            premium,\r\n            target,\r\n            date,\r\n            _reemittancePeriod,\r\n            mbrs,\r\n            endingDate\r\n        );\r\n\r\n        return (chamaCount, chamaAdd);\r\n    }\r\n\r\n    // chamaAddress will be the address of the chama's manager\r\n    // in the front end application we'll have a list of available chamas with the addresses of their respective managers\r\n    // function to join Chama\r\n    function joinChama(address chamaAddre, uint256 chamaCt)\r\n        public\r\n        payable\r\n        returns (uint256)\r\n    {\r\n        require(\r\n            chamaAddre == chamaManager1 ||\r\n                chamaAddre == chamaManager2 ||\r\n                chamaAddre == chamaManager3 ||\r\n                chamaAddre == chamaManager4\r\n        );\r\n        require(chamaMembersCount[chamaAddre] <= 12);\r\n        require(msg.value >= chamas[chamaCt].registrationFee);\r\n        uint256 registrationTime = block.timestamp;\r\n        membersCount++;\r\n        // membersCount will serve as memberID\r\n        uint256 id = members.push(\r\n            Member(\r\n                membersCount,\r\n                msg.sender,\r\n                chamaCt,\r\n                registrationTime,\r\n                true,\r\n                false,\r\n                false,\r\n                false\r\n            )\r\n        ) - 1;\r\n        membersToChama[id] = chamaAddre;\r\n        //chamaMembersCount[chamaAddre] = chamaMembersCount[chamaAddre].add(1);\r\n        chamaMembersCount[chamaAddre] = membersCount;\r\n        chamas[chamaCt].chamaMembers.push(msg.sender);\r\n        return (id);\r\n    }\r\n\r\n    /** function listOfChamaDetails(uint256 _chamsID) public view returns(ChamaDetails[]) {\r\n        // expect to return the members addresses made with the loan requests details\r\n        return (chamas[_chamsID]);\r\n    }  */\r\n\r\n    // function to disburse\r\n    // Using useEffect will keep on calling this function to keep track of time and make sure it\r\n    function disburseDividends(uint256 _chamID, address _membReceiving) public {\r\n        require(block.timestamp >= chamas[_chamID].creationDate + 408000);\r\n        require(memberPaidStatus[_membReceiving] == false);\r\n        memberFundCount++;\r\n        members[memberFundCount].member.transfer(\r\n            (chamas[_chamID].chamaManager.balance * 50) / 100\r\n        );\r\n        chamas[_chamID].creationDate = block.timestamp;\r\n        members[memberFundCount].hasBeenPaid = true;\r\n        memberPaidStatus[_membReceiving] = true;\r\n        if (memberFundCount > 12) {\r\n            memberFundCount = 0;\r\n        }\r\n    }\r\n\r\n    // function to check subscription status\r\n    function checkSubscriptionStatus(uint256 _membersCount)\r\n        public\r\n        view\r\n        returns (bool)\r\n    {\r\n        // Epoch Unix time equivalence of 30 days\r\n        // I converted 30 days to Epoch Unix time equivalence i.e 408000\r\n        //require(members[_membersCount].hasPaid == false )\r\n        //require(block.timestamp == members[_membersCount].registrationDate + 408000);\r\n        // Need to add logic to check if he or she has paid\r\n        //require(renewSubscription(_membersCount) == false);\r\n        bool expired;\r\n        if (\r\n            block.timestamp == members[_membersCount].registrationDate + 408000\r\n        ) {\r\n            expired = true;\r\n            return (expired);\r\n        } else {\r\n            expired = false;\r\n            return (expired);\r\n        }\r\n    }\r\n\r\n    // function to renew Subscription\r\n    function renewSubscription(uint256 _membersCount) public payable {\r\n        require(checkSubscriptionStatus(_membersCount) == false);\r\n        uint256 chama = members[_membersCount].chamaID;\r\n        require(msg.value >= chamas[chama].premium);\r\n        members[_membersCount].registrationDate = block.timestamp;\r\n        members[_membersCount].isActive = true;\r\n    }\r\n\r\n    // decisions as to whether to award loans to members will be based on a consensus made by every chama member\r\n    // function to create a Loan request\r\n    function createLoanRequest(\r\n        string _description,\r\n        uint256 _amount,\r\n        uint256 _memberNo,\r\n        uint256 _chmID\r\n    ) public {\r\n        address recipient = msg.sender;\r\n        uint256 approvalCount;\r\n        bool requestStatus = false;\r\n        loanRequestCount++;\r\n        requests.push(\r\n            Request(\r\n                loanRequestCount,\r\n                _description,\r\n                _amount,\r\n                recipient,\r\n                _chmID,\r\n                _memberNo,\r\n                requestStatus,\r\n                approvalCount\r\n            )\r\n        );\r\n        for (uint256 i = 0; i < chamas[_chmID].chamaMembers.length; i++) {\r\n            if (_chmID == 1) {\r\n                approversToChama1[membersToApproveCount] = chamas[_chmID]\r\n                    .chamaMembers[i];\r\n                membersToApproveCount++;\r\n            } else if (_chmID == 2) {\r\n                approversToChama2[membersToApproveCount] = chamas[_chmID]\r\n                    .chamaMembers[i];\r\n                membersToApproveCount++;\r\n            } else if (_chmID == 3) {\r\n                approversToChama3[membersToApproveCount] = chamas[_chmID]\r\n                    .chamaMembers[i];\r\n                membersToApproveCount++;\r\n            } else if (_chmID == 4) {\r\n                approversToChama4[membersToApproveCount] = chamas[_chmID]\r\n                    .chamaMembers[i];\r\n                membersToApproveCount++;\r\n            } else {\r\n                revert(\"Chama with that ID does not exist!\");\r\n            }\r\n        }\r\n        emit NewLoanRequest(\r\n            approvalCount,\r\n            _description,\r\n            _amount,\r\n            recipient,\r\n            _memberNo,\r\n            requestStatus\r\n        );\r\n    }\r\n\r\n    // function returns a list of loan requests\r\n    function listOfLoanRequests() internal view returns (Request[]) {\r\n        // expect to return the several requests made with the loan requests details\r\n        return (requests);\r\n    }\r\n\r\n    // function that Chama members will call to approve loan requests\r\n    function approveLoanRequest(\r\n        uint256 _requestID,\r\n        uint256 _approverID,\r\n        uint256 _chamsId\r\n    ) public {\r\n        //uint256 loaneeNumber = requests[_requestID].memberNo;\r\n        //require(members[loaneeNumber].chamaID)\r\n        if (_chamsId == 1) {\r\n            require(approversToChama1[_approverID] == msg.sender);\r\n        } else if (_chamsId == 2) {\r\n            require(approversToChama2[_approverID] == msg.sender);\r\n        } else if (_chamsId == 3) {\r\n            require(approversToChama3[_approverID] == msg.sender);\r\n        } else if (_chamsId == 4) {\r\n            require(approversToChama4[_approverID] == msg.sender);\r\n        }\r\n        // there may be many loan requests someone may argue\r\n        // but at the moment our rule is we can only administer one loan at a time\r\n        require(!membHasAlreadyApproved[msg.sender]);\r\n        requests[_requestID].approvalCount++;\r\n        membHasAlreadyApproved[msg.sender] = true;\r\n    }\r\n\r\n    // function to award loan based on consensus arrived by every member\r\n    // useEffect hook which is dispatched whenever there is change in state\r\n    // At the moment the contract process a Chama at a time, can't process concurrent requests\r\n    function awardLoanRequest(uint256 _requestID) public {\r\n        // In order to award loan, decision is influenced by chama members\r\n        uint256 memId = requests[_requestID].memberNo;\r\n        require(members[memId].isActive);\r\n        require(requests[_requestID].approvalCount >= 6);\r\n        require(!requests[_requestID].complete);\r\n        //chamas[chamaID].chamaManager.transfer()\r\n        requests[_requestID].recipient.transfer(\r\n            ((chamas[requests[_requestID].chamaID].chamaManager.balance * 5) /\r\n                100)\r\n        );\r\n        requests[_requestID].complete = true;\r\n        uint256 timeAwarded = block.timestamp;\r\n        uint256 loanDueDate = timeAwarded + 408000;\r\n        address manager = chamas[requests[_requestID].chamaID].chamaManager;\r\n        address loaneeAdd = members[memId].member;\r\n        loanCount++;\r\n        loans[loanCount] = Loan(\r\n            loanCount,\r\n            memId,\r\n            requests[_requestID].chamaID,\r\n            loaneeAdd,\r\n            (manager.balance * 5) / 100,\r\n            timeAwarded,\r\n            loanDueDate,\r\n            false\r\n        );\r\n        members[memId].hasLoaned = true;\r\n        // I want to set the membHasAlreadyApproved mapping with address as its key and value as a boolean field to the default mapping value\r\n        //delete membHasAlreadyApproved;\r\n    }\r\n\r\n    function payLoanAwarded(uint256 _loanId) public payable returns (bool) {\r\n        require(!loans[_loanId].hasBeenPaid);\r\n        uint256 dueTime = loans[_loanId].dueDate;\r\n        uint256 blockTime = block.timestamp;\r\n        uint256 loanPayAmt = loans[_loanId].amount;\r\n        uint256 loanAmt;\r\n        uint256 mbID = loans[_loanId].memberID;\r\n        // If you don't pay within the two months time frame your account is inactivated\r\n        if (blockTime <= dueTime) {\r\n            require(msg.value >= loanPayAmt);\r\n            return loans[_loanId].hasBeenPaid = true;\r\n        } else if (blockTime > dueTime) {\r\n            if (blockTime >= dueTime + 408000) {\r\n                loanAmt = (loanPayAmt * 102) / 100;\r\n                require(msg.value >= loanAmt);\r\n                return loans[_loanId].hasBeenPaid = true;\r\n            } else if (blockTime >= dueTime + 816000) {\r\n                loanAmt = (loanPayAmt * 104) / 100;\r\n                require(msg.value >= loanAmt);\r\n                return loans[_loanId].hasBeenPaid = true;\r\n            } else {\r\n                members[mbID].isActive = false;\r\n                return loans[_loanId].hasBeenPaid = false;\r\n            }\r\n        }\r\n    }\r\n\r\n    // Chama ends at the indicated date, once you join the Chama you can't leave until the end date reaches\r\n    function endChama() public {\r\n        // give one day for dividends to be sent to the last person and then they get dividends then the group is deleted\r\n        for (uint256 i = 1; i <= chamaCount; i++) {\r\n            if (block.timestamp >= chamas[i].endDate + 86400) {\r\n                delete chamas[i];\r\n            }\r\n        }\r\n    }\r\n}\r\n",
  "sourcePath": "C:\\Users\\ronle\\OneDrive\\Desktop\\Solidity\\CryptoZombies\\cryptozombies-lesson-code\\sample-folder\\contracts\\Chama.sol",
  "compiler": {
    "name": "solc",
    "version": "0.4.25+commit.59dbf8f1.Emscripten.clang"
  },
  "schemaVersion": "3.4.6",
  "updatedAt": "2022-04-08T00:43:31.161Z",
  "networkType": "ethereum",
  "devdoc": {
    "methods": {},
    "title": "Chama\r"
  },
  "userdoc": {
    "methods": {
      "createRandomChama(string,uint256,uint256,uint256,uint256)": {
        "notice": "constructor(\r string _nam,\r string _registrationFee,\r string _premium,\r string _target,\r uint256 _reemittancePeriod\r ) public {\r chamaCount++;\r chamaManager1 = msg.sender;\r uint256 time = block.timestamp;\r address[] memory membs;\r // 4896000 is Epoch Unix time equivalence of a year\r chamas[chamaCount] = ChamaDetails(\r chamaCount,\r _nam,\r chamaManager1,\r _registrationFee,\r _premium,\r _target,\r time,\r _reemittancePeriod,\r membs,\r 4896000\r );\r //return(chamaCount);\r } "
      },
      "disburseDividends(uint256,address)": {
        "notice": "function listOfChamaDetails(uint256 _chamsID) public view returns(ChamaDetails[]) {\r // expect to return the members addresses made with the loan requests details\r return (chamas[_chamsID]);\r }  "
      }
    }
  }
}