{
  "contractName": "Chama",
  "abi": [
    {
      "constant": true,
      "inputs": [],
      "name": "membersCount",
      "outputs": [
        {
          "name": "",
          "type": "uint256"
        }
      ],
      "payable": false,
      "stateMutability": "view",
      "type": "function"
    },
    {
      "constant": true,
      "inputs": [],
      "name": "chamaManager3",
      "outputs": [
        {
          "name": "",
          "type": "address"
        }
      ],
      "payable": false,
      "stateMutability": "view",
      "type": "function"
    },
    {
      "constant": true,
      "inputs": [
        {
          "name": "",
          "type": "uint256"
        }
      ],
      "name": "membersToChama",
      "outputs": [
        {
          "name": "",
          "type": "address"
        }
      ],
      "payable": false,
      "stateMutability": "view",
      "type": "function"
    },
    {
      "constant": true,
      "inputs": [
        {
          "name": "",
          "type": "uint256"
        }
      ],
      "name": "members",
      "outputs": [
        {
          "name": "memberID",
          "type": "uint256"
        },
        {
          "name": "member",
          "type": "address"
        },
        {
          "name": "chamaID",
          "type": "uint256"
        },
        {
          "name": "registrationDate",
          "type": "uint256"
        },
        {
          "name": "isActive",
          "type": "bool"
        },
        {
          "name": "hasLoaned",
          "type": "bool"
        },
        {
          "name": "hasEmergency",
          "type": "bool"
        },
        {
          "name": "hasPaid",
          "type": "bool"
        }
      ],
      "payable": false,
      "stateMutability": "view",
      "type": "function"
    },
    {
      "constant": true,
      "inputs": [],
      "name": "chamaManager2",
      "outputs": [
        {
          "name": "",
          "type": "address"
        }
      ],
      "payable": false,
      "stateMutability": "view",
      "type": "function"
    },
    {
      "constant": true,
      "inputs": [],
      "name": "chamaManager4",
      "outputs": [
        {
          "name": "",
          "type": "address"
        }
      ],
      "payable": false,
      "stateMutability": "view",
      "type": "function"
    },
    {
      "constant": true,
      "inputs": [],
      "name": "chamaManager1",
      "outputs": [
        {
          "name": "",
          "type": "address"
        }
      ],
      "payable": false,
      "stateMutability": "view",
      "type": "function"
    },
    {
      "inputs": [
        {
          "name": "_nam",
          "type": "string"
        },
        {
          "name": "_registrationFee",
          "type": "uint256"
        },
        {
          "name": "_premium",
          "type": "uint256"
        },
        {
          "name": "_target",
          "type": "uint256"
        },
        {
          "name": "_reemittancePeriod",
          "type": "uint256"
        }
      ],
      "payable": false,
      "stateMutability": "nonpayable",
      "type": "constructor"
    },
    {
      "constant": false,
      "inputs": [
        {
          "name": "_name",
          "type": "string"
        },
        {
          "name": "registrationFee",
          "type": "uint256"
        },
        {
          "name": "premium",
          "type": "uint256"
        },
        {
          "name": "target",
          "type": "uint256"
        },
        {
          "name": "_reemittancePeriod",
          "type": "uint256"
        }
      ],
      "name": "createRandomChama",
      "outputs": [
        {
          "name": "",
          "type": "uint256"
        },
        {
          "name": "",
          "type": "address"
        }
      ],
      "payable": true,
      "stateMutability": "payable",
      "type": "function"
    },
    {
      "constant": false,
      "inputs": [
        {
          "name": "chamaAddre",
          "type": "address"
        },
        {
          "name": "chamaCt",
          "type": "uint256"
        }
      ],
      "name": "joinChama",
      "outputs": [
        {
          "name": "",
          "type": "uint256"
        }
      ],
      "payable": true,
      "stateMutability": "payable",
      "type": "function"
    },
    {
      "constant": false,
      "inputs": [
        {
          "name": "_membersCount",
          "type": "uint256"
        }
      ],
      "name": "checkSubscriptionStatus",
      "outputs": [
        {
          "name": "",
          "type": "bool"
        }
      ],
      "payable": false,
      "stateMutability": "nonpayable",
      "type": "function"
    },
    {
      "constant": false,
      "inputs": [
        {
          "name": "_membersCount",
          "type": "uint256"
        }
      ],
      "name": "renewSubscription",
      "outputs": [],
      "payable": true,
      "stateMutability": "payable",
      "type": "function"
    }
  ],
  "bytecode": "0x606060405234156200001057600080fd5b6040516200153438038062001534833981016040528080518201919060200180519060200190919080519060200190919080519060200190919080519060200190919050506000600560008154809291906001019190505550336000806101000a81548173ffffffffffffffffffffffffffffffffffffffff021916908373ffffffffffffffffffffffffffffffffffffffff1602179055504290506101006040519081016040528060055481526020018781526020016000809054906101000a900473ffffffffffffffffffffffffffffffffffffffff1673ffffffffffffffffffffffffffffffffffffffff168152602001868152602001858152602001848152602001828152602001838152506009600060055481526020019081526020016000206000820151816000015560208201518160010190805190602001906200015d929190620001e6565b5060408201518160020160006101000a81548173ffffffffffffffffffffffffffffffffffffffff021916908373ffffffffffffffffffffffffffffffffffffffff160217905550606082015181600301556080820151816004015560a0820151816005015560c0820151816006015560e0820151816007015590505050505050505062000295565b828054600181600116156101000203166002900490600052602060002090601f016020900481019282601f106200022957805160ff19168380011785556200025a565b828001600101855582156200025a579182015b82811115620002595782518255916020019190600101906200023c565b5b5090506200026991906200026d565b5090565b6200029291905b808211156200028e57600081600090555060010162000274565b5090565b90565b61128f80620002a56000396000f300606060405236156100ad576000357c0100000000000000000000000000000000000000000000000000000000900463ffffffff16806319e75ec7146100b257806325d1afae1461016f578063297f9af0146101ba5780633b16b5d5146101e357806340e75ea01461023857806342a3844a146102735780635daf08ca146102d657806376a4598c1461037a5780638fe43307146103cf578063d71bb37b14610424578063ee69f4071461043c575b600080fd5b610126600480803590602001908201803590602001908080601f01602080910402602001604051908101604052809392919081815260200183838082843782019150505050505091908035906020019091908035906020019091908035906020019091908035906020019091905050610491565b604051808381526020018273ffffffffffffffffffffffffffffffffffffffff1673ffffffffffffffffffffffffffffffffffffffff1681526020019250505060405180910390f35b6101a4600480803573ffffffffffffffffffffffffffffffffffffffff16906020019091908035906020019091905050610a4a565b6040518082815260200191505060405180910390f35b34156101c557600080fd5b6101cd610e53565b6040518082815260200191505060405180910390f35b34156101ee57600080fd5b6101f6610e59565b604051808273ffffffffffffffffffffffffffffffffffffffff1673ffffffffffffffffffffffffffffffffffffffff16815260200191505060405180910390f35b341561024357600080fd5b6102596004808035906020019091905050610e7f565b604051808215151515815260200191505060405180910390f35b341561027e57600080fd5b6102946004808035906020019091905050610ec9565b604051808273ffffffffffffffffffffffffffffffffffffffff1673ffffffffffffffffffffffffffffffffffffffff16815260200191505060405180910390f35b34156102e157600080fd5b6102f76004808035906020019091905050610efc565b604051808981526020018873ffffffffffffffffffffffffffffffffffffffff1673ffffffffffffffffffffffffffffffffffffffff168152602001878152602001868152602001851515151581526020018415151515815260200183151515158152602001821515151581526020019850505050505050505060405180910390f35b341561038557600080fd5b61038d610fa7565b604051808273ffffffffffffffffffffffffffffffffffffffff1673ffffffffffffffffffffffffffffffffffffffff16815260200191505060405180910390f35b34156103da57600080fd5b6103e2610fcd565b604051808273ffffffffffffffffffffffffffffffffffffffff1673ffffffffffffffffffffffffffffffffffffffff16815260200191505060405180910390f35b61043a6004808035906020019091905050610ff3565b005b341561044757600080fd5b61044f6110b9565b604051808273ffffffffffffffffffffffffffffffffffffffff1673ffffffffffffffffffffffffffffffffffffffff16815260200191505060405180910390f35b6000806000806729a2241af62c000034101515156104ae57600080fd5b600073ffffffffffffffffffffffffffffffffffffffff16600160009054906101000a900473ffffffffffffffffffffffffffffffffffffffff1673ffffffffffffffffffffffffffffffffffffffff1614806105595750600073ffffffffffffffffffffffffffffffffffffffff16600260009054906101000a900473ffffffffffffffffffffffffffffffffffffffff1673ffffffffffffffffffffffffffffffffffffffff16145b806105b25750600073ffffffffffffffffffffffffffffffffffffffff16600360009054906101000a900473ffffffffffffffffffffffffffffffffffffffff1673ffffffffffffffffffffffffffffffffffffffff16145b15156105bd57600080fd5b600073ffffffffffffffffffffffffffffffffffffffff16600160009054906101000a900473ffffffffffffffffffffffffffffffffffffffff1673ffffffffffffffffffffffffffffffffffffffff1614806106685750600073ffffffffffffffffffffffffffffffffffffffff16600260009054906101000a900473ffffffffffffffffffffffffffffffffffffffff1673ffffffffffffffffffffffffffffffffffffffff16145b806106c15750600073ffffffffffffffffffffffffffffffffffffffff16600360009054906101000a900473ffffffffffffffffffffffffffffffffffffffff1673ffffffffffffffffffffffffffffffffffffffff16145b156107315733600160006101000a81548173ffffffffffffffffffffffffffffffffffffffff021916908373ffffffffffffffffffffffffffffffffffffffff160217905550600160009054906101000a900473ffffffffffffffffffffffffffffffffffffffff169150610915565b600073ffffffffffffffffffffffffffffffffffffffff16600260009054906101000a900473ffffffffffffffffffffffffffffffffffffffff1673ffffffffffffffffffffffffffffffffffffffff1614806107dc5750600073ffffffffffffffffffffffffffffffffffffffff16600360009054906101000a900473ffffffffffffffffffffffffffffffffffffffff1673ffffffffffffffffffffffffffffffffffffffff16145b1561084c5733600260006101000a81548173ffffffffffffffffffffffffffffffffffffffff021916908373ffffffffffffffffffffffffffffffffffffffff160217905550600260009054906101000a900473ffffffffffffffffffffffffffffffffffffffff169150610914565b600073ffffffffffffffffffffffffffffffffffffffff16600360009054906101000a900473ffffffffffffffffffffffffffffffffffffffff1673ffffffffffffffffffffffffffffffffffffffff16141561090e5733600360006101000a81548173ffffffffffffffffffffffffffffffffffffffff021916908373ffffffffffffffffffffffffffffffffffffffff160217905550600360009054906101000a900473ffffffffffffffffffffffffffffffffffffffff169150610913565b610a3e565b5b5b6005600081548092919060010191905055504290506101006040519081016040528060055481526020018a81526020018373ffffffffffffffffffffffffffffffffffffffff168152602001898152602001888152602001878152602001828152602001868152506009600060055481526020019081526020016000206000820151816000015560208201518160010190805190602001906109b89291906110de565b5060408201518160020160006101000a81548173ffffffffffffffffffffffffffffffffffffffff021916908373ffffffffffffffffffffffffffffffffffffffff160217905550606082015181600301556080820151816004015560a0820151816005015560c0820151816006015560e0820151816007015590505060055482935093505b50509550959350505050565b60008060008060009054906101000a900473ffffffffffffffffffffffffffffffffffffffff1673ffffffffffffffffffffffffffffffffffffffff168573ffffffffffffffffffffffffffffffffffffffff161480610af75750600160009054906101000a900473ffffffffffffffffffffffffffffffffffffffff1673ffffffffffffffffffffffffffffffffffffffff168573ffffffffffffffffffffffffffffffffffffffff16145b80610b4f5750600260009054906101000a900473ffffffffffffffffffffffffffffffffffffffff1673ffffffffffffffffffffffffffffffffffffffff168573ffffffffffffffffffffffffffffffffffffffff16145b80610ba75750600360009054906101000a900473ffffffffffffffffffffffffffffffffffffffff1673ffffffffffffffffffffffffffffffffffffffff168573ffffffffffffffffffffffffffffffffffffffff16145b1515610bb257600080fd5b600a600760008773ffffffffffffffffffffffffffffffffffffffff1673ffffffffffffffffffffffffffffffffffffffff16815260200190815260200160002054101515610c0057600080fd5b60096000858152602001908152602001600020600301543410151515610c2557600080fd5b429150600460008154809291906001019190505550600160088054806001018281610c50919061115e565b916000526020600020906005020160006101006040519081016040528060045481526020013373ffffffffffffffffffffffffffffffffffffffff1681526020018981526020018781526020016001151581526020016000151581526020016000151581526020016001151581525090919091506000820151816000015560208201518160010160006101000a81548173ffffffffffffffffffffffffffffffffffffffff021916908373ffffffffffffffffffffffffffffffffffffffff160217905550604082015181600201556060820151816003015560808201518160040160006101000a81548160ff02191690831515021790555060a08201518160040160016101000a81548160ff02191690831515021790555060c08201518160040160026101000a81548160ff02191690831515021790555060e08201518160040160036101000a81548160ff0219169083151502179055505050039050846006600083815260200190815260200160002060006101000a81548173ffffffffffffffffffffffffffffffffffffffff021916908373ffffffffffffffffffffffffffffffffffffffff160217905550600454600760008773ffffffffffffffffffffffffffffffffffffffff1673ffffffffffffffffffffffffffffffffffffffff168152602001908152602001600020819055506004549250505092915050565b60045481565b600260009054906101000a900473ffffffffffffffffffffffffffffffffffffffff1681565b600080620639c0600884815481101515610e9557fe5b90600052602060002090600502016003015401421415610ebb5760019050809150610ec3565b600090508091505b50919050565b60066020528060005260406000206000915054906101000a900473ffffffffffffffffffffffffffffffffffffffff1681565b600881815481101515610f0b57fe5b90600052602060002090600502016000915090508060000154908060010160009054906101000a900473ffffffffffffffffffffffffffffffffffffffff16908060020154908060030154908060040160009054906101000a900460ff16908060040160019054906101000a900460ff16908060040160029054906101000a900460ff16908060040160039054906101000a900460ff16905088565b600160009054906101000a900473ffffffffffffffffffffffffffffffffffffffff1681565b600360009054906101000a900473ffffffffffffffffffffffffffffffffffffffff1681565b600080151561100183610e7f565b151514151561100f57600080fd5b60088281548110151561101e57fe5b90600052602060002090600502016002015490506009600082815260200190815260200160002060040154341015151561105757600080fd5b4260088381548110151561106757fe5b906000526020600020906005020160030181905550600160088381548110151561108d57fe5b906000526020600020906005020160040160006101000a81548160ff0219169083151502179055505050565b6000809054906101000a900473ffffffffffffffffffffffffffffffffffffffff1681565b828054600181600116156101000203166002900490600052602060002090601f016020900481019282601f1061111f57805160ff191683800117855561114d565b8280016001018555821561114d579182015b8281111561114c578251825591602001919060010190611131565b5b50905061115a9190611190565b5090565b81548183558181151161118b5760050281600502836000526020600020918201910161118a91906111b5565b5b505050565b6111b291905b808211156111ae576000816000905550600101611196565b5090565b90565b61126091905b8082111561125c576000808201600090556001820160006101000a81549073ffffffffffffffffffffffffffffffffffffffff0219169055600282016000905560038201600090556004820160006101000a81549060ff02191690556004820160016101000a81549060ff02191690556004820160026101000a81549060ff02191690556004820160036101000a81549060ff0219169055506005016111bb565b5090565b905600a165627a7a7230582086d18301f2be68de68183b8f4e3e2ce765a440a791eec2fbc5c3c53874c795030029",
  "source": "// SPDX-License-Identifier: MIT\r\npragma solidity ^0.4.17;\r\n\r\ncontract Chama {\r\n    // Chama Managers will be required to create chamas and will be responsible for disbursing funds for emergency and loans\r\n    // To be a chama Manager you'll have to a minimum of 3eth\r\n    address public chamaManager1;\r\n    address public chamaManager2;\r\n    address public chamaManager3;\r\n    address public chamaManager4;\r\n    // Since I'm storing members in a mapping I need membersCount to keep track of the number of members\r\n    uint256 public membersCount;\r\n    uint256 chamaCount;\r\n    \r\n    struct Member {\r\n        uint256 memberID;\r\n        address member;\r\n        uint chamaID;\r\n        uint256 registrationDate;\r\n        bool isActive;\r\n        bool hasLoaned;\r\n        bool hasEmergency;\r\n        bool hasPaid;\r\n    }\r\n\r\n    // keeps track of the members of a specific chama\r\n    mapping(uint256 => address) public membersToChama;\r\n    // keeps track of the numbers of members of a specific chama\r\n    mapping(address => uint256) chamaMembersCount;\r\n\r\n    Member[] public members;\r\n\r\n    struct ChamaDetails {\r\n        uint256 chamaID;\r\n        string _name;\r\n        address chamaManager;\r\n        uint256 registrationFee;\r\n        uint256 premium;\r\n        uint256 target;\r\n        uint256 creationDate;\r\n        // disbusrement period will be the amount of time it take before funds are disbursed i.e 1 month or a week\r\n        uint256 disbursementPeriod;\r\n    }\r\n\r\n    mapping(uint256 => ChamaDetails) chamas;\r\n\r\n    // The address that deploys this contract will be chamaManager1\r\n   \r\n\r\n    function Chama(\r\n        string _nam,\r\n        uint _registrationFee,\r\n        uint _premium,\r\n        uint _target,\r\n        uint _reemittancePeriod\r\n    ) public  {\r\n        chamaCount++;\r\n        chamaManager1 = msg.sender;\r\n        uint time = block.timestamp;\r\n        chamas[chamaCount] = ChamaDetails(\r\n            chamaCount,\r\n            _nam,\r\n            chamaManager1,\r\n            _registrationFee,\r\n            _premium,\r\n            _target,\r\n            time,\r\n            _reemittancePeriod\r\n        );\r\n        //return(chamaCount);\r\n    }\r\n\r\n    function createRandomChama(string _name, uint registrationFee, uint premium, uint target, uint _reemittancePeriod) public payable returns(uint, address) {\r\n        // For one to be a chama Manager he or she must be willing to pay 3 ether\r\n        require(msg.value >= 3 ether);\r\n        require(chamaManager2 == address(0) || chamaManager3 == address(0) || chamaManager4 == address(0));\r\n        // chamaAdd will be the Chama Address which will be equal to ChamaManager's address\r\n        address chamaAdd;\r\n        uint date;\r\n        // chamaManager address will be the \r\n        if(chamaManager2 == address(0) || chamaManager3 == address(0) || chamaManager4 == address(0)){\r\n            // assign to chamaManager2\r\n            chamaManager2 = msg.sender;\r\n            chamaAdd = chamaManager2;\r\n        } else if(chamaManager3 == address(0) || chamaManager4 == address(0)){\r\n            // assign to chamaManager3\r\n            chamaManager3 = msg.sender;\r\n            chamaAdd = chamaManager3;\r\n        } else if(chamaManager4 == address(0)){\r\n            // assign to chamaManager4\r\n            chamaManager4 = msg.sender;\r\n            chamaAdd = chamaManager4;\r\n        } else {\r\n            // stop creating a random chama\r\n            return;\r\n        }\r\n        chamaCount++;\r\n        date = block.timestamp;\r\n        chamas[chamaCount] = ChamaDetails(\r\n            chamaCount,\r\n            _name,\r\n            chamaAdd,\r\n            registrationFee,\r\n            premium,\r\n            target,\r\n            date,\r\n            _reemittancePeriod\r\n        );\r\n        return(chamaCount, chamaAdd);\r\n    }\r\n\r\n\r\n    // chamaAddress will be the address of the chama's manager\r\n    // in the front end application we'll have a list of available chamas with the addresses of their respective managers\r\n    function joinChama(address chamaAddre, uint chamaCt ) public payable returns (uint256) {\r\n        require(\r\n            chamaAddre == chamaManager1 ||\r\n            chamaAddre == chamaManager2 ||\r\n            chamaAddre == chamaManager3 ||\r\n            chamaAddre == chamaManager4\r\n        );\r\n        require(chamaMembersCount[chamaAddre] < 10);\r\n        require(msg.value >= chamas[chamaCt].registrationFee);\r\n        uint256 registrationTime = block.timestamp;\r\n        membersCount++;\r\n        // membersCount will serve as memberID\r\n        uint256 id = members.push(\r\n            Member(\r\n                membersCount,\r\n                msg.sender,\r\n                chamaCt,\r\n                registrationTime,\r\n                true,\r\n                false,\r\n                false,\r\n                true\r\n            )\r\n        ) - 1;\r\n        membersToChama[id] = chamaAddre;\r\n        //chamaMembersCount[chamaAddre] = chamaMembersCount[chamaAddre].add(1);\r\n        chamaMembersCount[chamaAddre] = membersCount;\r\n        return (membersCount);\r\n    }\r\n\r\n    function checkSubscriptionStatus(uint256 _membersCount)\r\n        public\r\n        returns (bool)\r\n    {\r\n        // Epoch Unix time equivalence of 30 days\r\n        // I converted 30 days to Epoch Unix time equivalence i.e 408000\r\n        //require(members[_membersCount].hasPaid == false )\r\n        //require(block.timestamp == members[_membersCount].registrationDate + 408000);\r\n        // Need to add logic to check if he or she has paid\r\n        //require(renewSubscription(_membersCount) == false);\r\n        bool expired;\r\n        if(block.timestamp == members[_membersCount].registrationDate + 408000){\r\n            expired = true;\r\n            return(expired);\r\n        } else{\r\n            expired = false;\r\n            return(expired);\r\n        }\r\n    }\r\n\r\n    function renewSubscription(uint256 _membersCount) public payable {\r\n        require(checkSubscriptionStatus(_membersCount) == false);\r\n        uint chama = members[_membersCount].chamaID;\r\n        require(msg.value >= chamas[chama].premium);\r\n        members[_membersCount].registrationDate = block.timestamp;\r\n        members[_membersCount].isActive = true;\r\n    }\r\n}\r\n",
  "sourcePath": "C:\\Users\\ronle\\OneDrive\\Desktop\\Solidity\\CryptoZombies\\cryptozombies-lesson-code\\sample-folder\\contracts\\Chama.sol",
  "compiler": {
    "name": "solc",
    "version": "0.4.17+commit.bdeb9e52.Emscripten.clang"
  },
  "schemaVersion": "3.4.6",
  "updatedAt": "2022-04-05T05:58:57.724Z",
  "devdoc": {
    "methods": {}
  },
  "userdoc": {
    "methods": {}
  }
}